:100000000C9449090C9471090C9471090C947109B0
:100010000C9471090C9471090C9471090C94710978
:100020000C9471090C9471090C9471090C94710968
:100030000C9471090C9471090C9471090C94710958
:100040000C94FF0A0C9471090C948D0B0C94490BC1
:100050000C9471090C9471090C9471090C94710938
:100060000C9471090C9471092EB101500DF8800F98
:10007000F8800F28A954A921A54A8324558694A85D
:100080000AA5220D2A55144940B0E4038862109451
:1000900002558454A908A54AA90C823002E3308590
:1000A000B230E003986810300C02124150275D1204
:1000B00087299885011FC0BF88A212A495430047D5
:1000C00020154141A02A94532CE05B8F2A9468A804
:1000D00087444CA1088C83800FF8800FF800A5A5F9
:1000E00034AE2900480455A154FC6D1F50008052C5
:1000F000559508A158FC094B211428410D02A14136
:10010000A030085404812AA8A1148D89980EB9D86A
:10011000F249B209540A31084805012AA15454850C
:10012000523425623AE6629B130C0214A11C50293A
:100130009FF2011F005488EE0142AA244404318832
:100140002020419522C5920F000241800A2A554481
:1001500041800A0A54029484964333760208A854D4
:100160005445432844431E0461C7B7461010A010ED
:100170000CA46A00410720EC801008A5684CC474E8
:100180000CF800A7120494206E83882000059514B3
:1001900009A82448082541092AC5540C28006D1FC8
:1001A000800483004528077C3D5251F5C211D2F7E7
:1001B0007D1FF0E3D5F77D3FFE7DDFF77D3CFE7DC3
:1001C000DFF7E3DFF77D1FF02A8240601008010AA5
:1001D000119202119480A808220422A23111D33175
:1001E00017033E4050050121821429A12041051129
:1001F000883720413514A0A2202584200548E9989D
:10020000CB014A3280C32012E3880A55A894A00883
:10021000A52424081404018A2000150490822011CA
:10022000D271B75A0F402BA82A03A84110C17110F0
:1002300001548220825ABFF55B816A2B0481AA682F
:1002400008C5686CFD56A5190941D88A542B014A86
:100250002B04E129A2A8810EA0222888A84269A91E
:10026000EB79B4800FB8D60EF8800F28A854A908EF
:10027000A54A492155522A422108A8A84A0490417A
:100280004029086051A5288B2A892C2081221680BC
:10029000A64301500D85800F40A2418034083A8169
:1002A0006A21CA9801548D406A46426103F730E0E2
:1002B000033EE0033E202040802A4A9450112282CF
:1002C000341A13B1F4030E6000A80800010DA02237
:1002D00008408462002462E9071C80765001414591
:1002E0003D0854A1A01B1482E8865680D8FA010F5D
:1002F00091284411082E281810866000420C80D2E4
:100300000F78A850A908114A151254AA24A2016115
:10031000342742C9077C802209E2800F708A41B0ED
:1003200086A816805410500A62124140A1EC033E88
:10033000000806010AAA54143681D06E0AFA74CA5B
:10034000C562ACA400DDC0CC0EFA79AFC480A74A68
:100350000B8A524A828452500594962AA5A1188D80
:100360008958FA011F8008370101556AAA42291AE3
:10037000033EE0033E800806018A20A2A2301480DA
:10038000E67EC050010095922AA1A198F9011FF0C4
:10039000D71541011FC0408F4121554A41404A288D
:1003A000555450A9A88852520F40A1EA0308401D95
:1003B000A8824A499550528214928212F42990855B
:1003C00005588601FD8B283A600783804A04446300
:1003D000D00771190624050050495DA02A8511A097
:1003E000B00D145209851D3802554049A5E32184FA
:1003F0004204C44122A603D0D66F350AA114C742D5
:10040000E3886A9C245219DE349538A0247405824E
:100410000095502A8A845212D404908200D0381D4C
:100420005104E4521096E175039DE52088C04C0804
:10043000852050F54B140029A4484521895088C6D1
:100440003E804A251D5A3B086A28489A1055139148
:10045000125403508238029A40209556A0DABAD737
:1004600016010AA952121A44FD8882EA390451ACD5
:100470009028038A2D9D0500A0CEC20E74602BEC3F
:1004800050288E705C156019B67EEB510802AA11D7
:1004900040E1065A3F600806018A208EC0C40FF86A
:1004A000E26FFD070805A0F51F80547E819250AAD7
:1004B000A442A198A330086BA8155330864221E0CE
:1004C000DB0900544AAA84066104267ED3073085DE
:1004D00025DFF7F78CC2020CF8800FF8800F0000C0
:1004E000CBA00A2A2500424900408840110844A0B8
:1004F0008200502845030204000482000294503A0E
:10050000505025900A00A0AD4D30085074B020A185
:10051000A4042924052588010481AA508E9320A0D3
:1005200040B5B5295C4301400D826B5448824A10A6
:10053000D4531FC41DD4326C1DA06BB44911007577
:10054000108236D7CAB0752E3008059202940B502F
:10055000823E05B3F09A86E0FAAF638484065104C4
:100560005E7FEBB77EAB041985E66AFD2082520FF1
:10057000905A0152224048C12CBEFE11A80128E920
:1005800010E4651641E95986370D802A1555078014
:100590002202823EC80BA80C026604A8280CFA1D91
:1005A00008822FA7A44A2815001D109004A000253A
:1005B00005290B400501AA08504195542390121AB1
:1005C000CAD1880A6A3A08CDA53E20007507029272
:1005D0004210901A83A00F320053700D414821023F
:1005E0005AFB1A05A513291441066087827607AEC7
:1005F000B715D25148102808020441DC2D2082187A
:100600005410406AFD00A002002A255542AFE9E8D7
:10061000832805B3A000CBF0BAE3201D5AB38C1396
:10062000291D2B20C8AF21A0AF3F28210401A06BBA
:100630005158062AAA01451010BCFEEB51900E1528
:10064000400A5528808A0648422950017AFDAD2685
:10065000640D1402A5B28A354080540D8E6801964F
:10066000616B5D03D01D564801C52CA08887A00F83
:1006700052002DD50A545B014A2B047D905E7FEB1E
:10068000077D105012540FAAEAE11A095EFFCEA2AC
:1006900008EA0BEC2628D73D0C04495045B8269BA8
:1006A000110411982859588065D85A04A8026C92F0
:1006B0007A0FFA2006D052542900004A4A95C220E7
:1006C0008C0085542909A54AEADA62253780B64D9F
:1006D0001C902A84208AC02608BA5C2BC380A710ED
:1006E0000445B40394F2818A8A184015E34140B569
:1006F000FEAF924211076D0A5E7D80110C0214C597
:10070000A00A2A2541422901104A056AE1077CC056
:10071000073405004049A952188A997FAD414E001F
:10072000054054AA54D4202555EFA00A6A0A156042
:10073000C053C9044A428340610428244845050A3D
:100740000AA89AA80314126AA50C009507149A3FE8
:100750000028060109AA44514145484AC83E28528A
:100760005809FD802A94AE41611F520000B4F16F18
:100770002408284125480A2A0A50425189AA64556A
:100780002A3A2008BB11281505B9D0FE374EB515F9
:1007900082402801500A5135411046601CA650166F
:1007A0001660C04FE102AEE10E1EE105DEE10B7EF8
:1007B00021C156A41404549A3E802900005A8994F9
:1007C00082A01B3A3094282952484A48374045783D
:1007D0000544AFBE59820014D44A104A280850D5A7
:1007E000431F5278042A2A5050514890D230501258
:1007F0007A05B710F0014030085064812AA8D7204C
:10080000B4093B40050114001331280A30E0A90265
:100810006D0205CBD04A025B414507A9008A02154B
:100820005482A48E81D425DC7C80530000B40683DE
:10083000E01AA19252510DA1282A1A2029244145DB
:100840000545AA08F38168E337631080824AA19EB8
:100850004F2108540DB222159414A0A0A290209507
:100860002BA07AF5013489F350005429050129059C
:10087000005B41451046601CA6E0D507D8142CE06B
:100880001AEEE0115EE01DBEE0175250950DA082F9
:100890008042D3DF30C5452041A51E202924254AAA
:1008A000682B40ADC75052158D0A2900005AFF0130
:1008B0004C651628DD0029A104494145810AEA2931
:1008C00000ADC12050414995C020804A454101B446
:1008D0003F1528402909524802118820A4240C44BD
:1008E0001C507C07AA24A842240145040921DD806C
:1008F00040288920A048740D5A9708454A4DCC0AD3
:10090000810A1208230081420A40C7012A444A4052
:10091000455042A8909208A1944008A542B1F50222
:100920000EE138C8A04A895AD9077C4000A44A4D34
:100930004528D008629AB91FF001B48742838061CC
:100940003D8762343E7CC007703D5EF023BD43C0EE
:10095000077C8051A206958A8C304098F1011F10C7
:1009600052A952091255D71FF0014A310848060111
:10097000D26E0AA5684CC4800FF87D3AC53BE9A643
:10098000800FF8800FF88001BA050AA952124A9523
:100990001454AA286221E8D329178BB112039C6052
:1009A000D9077D109561405299F43509FA74CCC588
:1009B000628A82EB66F91254044195044558104648
:1009C000E05114E0B5132D0615A10030E2233EA23C
:1009D000A73CE0033EE0BB3FE003BEFB033EE00379
:1009E000BEFB033EE0BB3FE0033EE0BB3FE003BE97
:1009F000FB033EE003BEFB033EE0BB3F605005014E
:100A0000A120A0444528150A02A9D252493514A3B1
:100A10003111D33917038C683AA8080580111FF1EA
:100A200011C892A85252AA84B204A834EB233E0201
:100A30005810A92116006A3EE26BBEF86BBEE62391
:100A4000BEE6B33EE26BBEF8233E42021000550AFA
:100A5000AA809212A4308854057DD007616B910062
:100A60008030088B3FE85B3FA86ABEF55BBFFB5B4D
:100A7000BFF583BEEF5A3FE83BBEF52B3FE8BBA571
:100A8000B53A2811B2688123485428451382680C6E
:100A9000E2560F301541203008840085084981084E
:100AA0004A008240810A4A0811425288500851A2E5
:100AB000E9988B0107852A1541502981127A07A1EF
:100AC000002908A008A50000EA328412558059D0F8
:100AD0000094DA800A8A5038012A40BB3F60090638
:100AE0004125CC6210A90AA51D0C582A508052122B
:100AF000A49004221041180120E280E2050024A500
:100B00004005091182828422C4E66F4522142935EA
:100B1000312B04958020021028A000B4F5033E007C
:100B200055048100A0041E0015241084283D0025D2
:100B30000541100AD1F089940450A4928B011F2022
:100B4000A8804221A440102420822040A90228AA83
:100B5000762114A30912D574C8C5FAA74A052055F1
:100B60004A73400911D420A100002A29554243911B
:100B70006A3A9C212581A1802214148602D05A262B
:100B8000308C50A908104AA51842912AD432A88462
:100B9000684EC1088AC3C44F042011A02811440420
:100BA000712B26E24852119248D150CFA2E2405018
:100BB0003425C20504410A9761A8A6D06FB56A0121
:100BC0000B1A67A8C594C2A1306EB95C29D1500434
:100BD00005918B80AE2D802940054A428842448889
:100BE0004004810A04A1409408C554CA8756A4222F
:100BF0003008440481A2290E02AA509A3400894286
:100C0000218A4010C23A10812A0810880041002031
:100C100045522AA60060EBB70E4528D720E85A14A3
:100C20005E03500200A8B67EEB0730058A44498176
:100C30004070012A820001AA207844A2102952257E
:100C40009001A86A4084D020A10AA01502A695119F
:100C5000B6268956DA847DA4044A28A9508414044F
:100C600050BA816AC705D43050258130880F2108D9
:100C70002955433D047C00AB0802814120042840F3
:100C8000480A5450BA014AA1084404242822845036
:100C900085988EB918F001822A080811A00009155C
:100CA00028210840400D05A18020088DC6444CC76E
:100CB0005C0EF8EB058A9092428454102284140A48
:100CC0008940F4FAAF9F02A57D808208C429420DB5
:100CD0004544D19088D77FFDD78240042505024244
:100CE00011120215428802BCFEEB234801120A527F
:100CF000424E1105890BB82621D700E9FA039C4A18
:100D000010500AE2804FD7020C38A0542928A54A77
:100D10002BED03340B0B30EDA9420D02A1411CF069
:100D2000E95A80011FD004D7018502828810A108EA
:100D3000820042100444891029FD80A318042488ED
:100D400050A806508D88AA0D419022429142E90791
:100D5000A88A20100085802048A8204142400950E0
:100D60001020424549150248A2100A02845000157D
:100D7000A2B918F001820A0800428A543503020A17
:100D800008119250889022D050A08AF0141052A2DC
:100D90004A94502ED6FFB50A0C022154014282A279
:100DA0008212141141100A404440522242085088D5
:100DB000E978FDD711048488508084089410542069
:100DC000840621A2208C86444CC7EB0F20020489A4
:100DD000A240811011021588421104C2682041907E
:100DE0002045AA54024110544AA084920A45484121
:100DF0000045680240EDFA0024580E08370021151E
:100E00004408090501A22000000060F15FFFF5120F
:100E1000C8005450A988388220A60AF1E203064689
:100E200010077C40531806529340320842311A038F
:100E30003EE003846010A0A04A4515544AAA84529B
:100E4000000034EF033E00A800804A401540528263
:100E5000140691AA2000A090842A842400208CC625
:100E60005045950202B2301A42219A1261F8033EAF
:100E7000E0033EE0033EE0033EE0039C000080A868
:100E800054A920800020551231803008423FF45090
:100E90000401C1C15611040283400850809010A87B
:100EA000A0844004250541100AD19888E9988B0157
:100EB0001F20A8828010010A90508110420894508F
:100EC0001241802008A23111D3319703920A50AA0F
:100ED000D4948652C053259002ACB22014039E02D3
:100EE00054AAB4A48652C0A700C02C50194A01BF0E
:100EF0002C4180EA16043E43B7100C0296A11C80D8
:100F0000541681502AA88880EE0FF80046D108AA0E
:100F1000A052522534E3039A681020040810810A75
:100F2000158840200C42142A101204988C01DFFA14
:100F300008811244A0104513880842140A44100482
:100F40000AB1F4038E0245AAA4405C8308154180CF
:100F5000105510201085902884EB0F781541203013
:100F6000088410050809810A4A9D40E91A42311A8D
:100F700013311D7331E00304551010224A811242CF
:100F800052501092101A8408820015282804122149
:100F90001D7339E0038C922AA1545441A58A22E39F
:100FA000033EE0038E561030901A441118F0C59F8E
:100FB000F5C55FFC011FF0011F704AA952031944D7
:100FC0001118F0051FF0655FF6011FF0011F1024D6
:100FD000840611A9500EC2802FFEE22FFBB20FF83B
:100FE000800FF880A2843088154668C0177FF1977B
:100FF0007DD9077CC0077CC0077CC0077CC0077C0C
:10100000C0077CC0077CC00708150050A9A9921A28
:101010008A899FF8899FF889A32A9143A1F88BBFF9
:10102000F88BBFF87F3F71033EE0033EE0033EE0F4
:10103000033EE0033EE0033EE0033EE0033EE00308
:101040003EE0033E205841A5CA2014185280429425
:101050009420AA248450251504A140948420861449
:10106000A1A4632E067C80A00A024240815252A0B5
:10107000908A10115485280C82505020820A508882
:1010800094D23197033EE0033EE0033EE0033EE0AE
:10109000033EE0033EE0033E000906018A204018BB
:1010A0000424423FF4098000884A950A020000B6F1
:1010B0007EE8871A0104009A084513B77EE89F6608
:1010C00028D450EB87FEA93471282452EB87FEE91F
:1010D000244AEB87FEE9B47EFD9F7EEBB7FEE9B7BD
:1010E0007EEB9F7EEBB7FE6901A8BFD63FFDD36FB5
:1010F000FD563FB526C84504F5DFFAA75FFFAD1FD3
:1011000081A75DF9AD1F4404509C7EE8B75EC0071F
:101110007CC0070073657474696E677320736176B1
:10112000656400796177206C65667420746F206750
:101130006F206261636B007761726E2061742000C2
:10114000626174746572792000796177206C6566DC
:101150007420746F206578697400726F6C6C2F70E6
:101160006974636820746F2063656E746572206FA4
:10117000736400666F6E74207570646174656400DA
:10118000796177206C6F6E67206C65667420746F70
:10119000206578697400796177206C6566742066D3
:1011A0006F72206E657874206974656D0075736563
:1011B0002070697463682F726F6C6C20746F206D7F
:1011C0006F766500796177206C65667420746F2096
:1011D00065786974007573652070697463682F722F
:1011E0006F6C6C20746F20736574206E616D650088
:1011F0006E6F20636F6E6E656374696F6E20746FBF
:10120000206B69737320666300646F206E6F7420B7
:10121000706F776572206F666621212100666F6EA0
:10122000742077696C6C20626520757064617465E8
:10123000640075706461746520666F6E74000000F0
:101240000008000201000003040700000000000085
:10125000000000000000250028002B000000000016
:10126000240027002A0004040404040404040202E5
:101270000202020203030303030301020408102015
:1012800040800102040810200102040810203428C4
:10129000252811241FBECFEFD8E0DEBFCDBF11E05F
:1012A000A0E0B1E0E2ECFAE502C005900D92AE39A3
:1012B000B107D9F727E0AEE9B1E001C01D92A6352C
:1012C000B207E1F719E0C8E4D9E004C02197FE01B4
:1012D0000E942E2DC734D107C9F70E942E150C94F9
:1012E000542D0C940000FC01828D238D8F5F948D12
:1012F000992369F0682F70E0408D042E000C550B87
:101300006417750724F02F5F81E0878F80E0958D4B
:10131000992369F0622F70E0418D042E000C550B6B
:101320006417750724F081E0878F20E080E0F8944F
:10133000828F238F30E0418D042E000C550B61E02D
:10134000241735070CF060E090E0408D042E000C6F
:10135000550B21E0841795070CF020E02623268FFB
:10136000789408958EBD00000DB407FEFDCF8EB5B4
:10137000089508952091C2023091C3028091C40261
:101380009091C5022817390769F08091C4029091A5
:10139000C502E091C002F091C102E80FF91F8081FF
:1013A00090E008958FEF9FEF0895CF92DF92EF9234
:1013B000FF920F931F93CF93DF937C018A01EB0180
:1013C0006B01C40ED51ECC15DD0551F06991D70116
:1013D000ED91FC910190F081E02DC7010995F3CFCB
:1013E000C801DF91CF911F910F91FF90EF90DF9097
:1013F000CF9008958091C4029091C5022091C202BD
:101400003091C30228173907D1F09C012F5F3F4F5D
:101410004091C0025091C102FA01E80FF91F80818A
:101420004091C6025091C7022417350710F020E002
:1014300030E03093C5022093C40290E008958FEF0E
:101440009FEF08952FB7F8948091C2029091C30244
:101450004091C4025091C502841B950B2FBF97FF8A
:1014600006C02091C6023091C702820F931F0895D3
:101470008091C00085FFFCCF6093C60081E090E0C2
:10148000089560E070E080E89FE308950E943F2D9A
:1014900090E0FC01E25CFD4E3491FC01E658FD4E0B
:1014A0002491FC01EA59FD4EE491EE2309F43BC07E
:1014B000332339F1333091F038F43130A9F0323040
:1014C00001F584B58F7D12C0373091F03830A1F02E
:1014D0003430B9F4809180008F7D03C0809180000A
:1014E0008F77809380000DC084B58F7784BD09C04D
:1014F0008091B0008F7703C08091B0008F7D809382
:10150000B000F0E0EE0FFF1FEE5AFD4EA591B49132
:101510008FB7F894EC91611103C020952E2301C080
:101520002E2B2C938FBF08953FB7F89480910D0612
:1015300090910E06A0910F06B091100626B5A89BBB
:1015400005C02F3F19F00196A11DB11D3FBFBA2F55
:10155000A92F982F8827820F911DA11DB11DBC01B5
:10156000CD0142E0660F771F881F991F4A95D1F77A
:1015700008958F929F92AF92BF92CF92DF92EF9297
:10158000FF926B017C010E94940A4B015C01C11423
:10159000D104E104F104F1F00E94940ADC01CB01D2
:1015A00088199909AA09BB09883E9340A105B1058C
:1015B00070F321E0C21AD108E108F10888EE880E24
:1015C00083E0981EA11CB11CC114D104E104F104F4
:1015D00019F7DDCFFF90EF90DF90CF90BF90AF90E5
:1015E0009F908F9008952FB7F8946091090670919D
:1015F0000A0680910B0690910C062FBF08951F924A
:101600000F920FB60F9211242F933F938F939F93B6
:10161000AF93BF938091090690910A06A0910B06A3
:10162000B0910C063091080623E0230F2D3720F4EB
:101630000196A11DB11D05C026E8230F0296A11D2C
:10164000B11D209308068093090690930A06A09383
:101650000B06B0930C0680910D0690910E06A0919A
:101660000F06B09110060196A11DB11D80930D06C5
:1016700090930E06A0930F06B0931006BF91AF9102
:101680009F918F913F912F910F900FBE0F901F90C0
:1016900018951F920F920FB60F9211242F933F931C
:1016A0004F935F938F939F93EF93FF932091040643
:1016B00030910506809102069091030682179307E8
:1016C000D1F0C90101964091000650910106FA013E
:1016D000E20FF31F20814091060650910706841700
:1016E000950710F080E090E0909305068093040643
:1016F0002093C60005C08091C1008F7D8093C100FA
:10170000FF91EF919F918F915F914F913F912F9119
:101710000F900FBE0F901F9018951F920F920FB64B
:101720000F9211242F933F934F935F936F937F9367
:101730008F939F93EF93FF938091C0008C71909152
:10174000C6004091C2025091C3029A012F5F3F4FE1
:101750006091C0027091C102FB01E40FF51F9083FC
:101760004091C6025091C7022417350710F020E0BF
:1017700030E04091C4025091C50224173507C1F0F2
:101780003093C3022093C2029091FF05892B80936E
:10179000FF05FF91EF919F918F917F916F915F91E5
:1017A0004F913F912F910F900FBE0F901F90189562
:1017B0008160EACF0F931F93CF93DF93EC01062F45
:1017C000142F8AA1882339F0F8946FEFCE010E947C
:1017D000040C1AA27894EE81FF8120819D8190955E
:1017E00092239083802F0E94B209812F0E94B20918
:1017F000EE81FF8180819D81982B9083812FDF91E5
:10180000CF911F910F9108951F93CF93DF93EC0118
:10181000162F8AA181110EC0F89464E8CE010E94AF
:101820002F0C482F416064E0CE010E94DA0B81E06A
:101830008AA37894EE81FF8120819D8190959223E7
:101840009083812F0E94B209EE81FF8180819D816A
:10185000982B9083812FDF91CF911F9108951F9333
:10186000CF93DF93EC01162F8AA1882339F0F894E7
:101870006FEFCE010E94040C1AA27894EE81FF81D2
:1018800020819D81909592239083812F0E94B2099F
:101890008FEF0E94B209EE81FF8120819D81922B02
:1018A0009083DF91CF911F910895EF92FF920F9354
:1018B0001F93CF93DF931F92CDB7DEB77C01562FD6
:1018C000FC01868D81110BC0C7010E94730981E064
:1018D00090E0F7019383828380E090E043C0F701BA
:1018E000878D81110AC082A1882339F06F3F29F0CA
:1018F000652FC7010E94040C30C0F7018789238D32
:10190000022E000C330B280F311D87FD3A958EE116
:10191000829F8001839F100D11242689828D082EBD
:10192000000C990B820F911D27FD9A95080F191F26
:10193000412F65E0C70159830E94DA0B402F66E012
:10194000C7010E94DA0BF701178E59815F3F81F6BC
:101950004FEF67E0C7010E94DA0BC7010E947309CD
:1019600081E090E00F90DF91CF911F910F91FF9058
:10197000EF900895FC0180A1882321F167FF1FC02B
:10198000808D680F47FF02C0818D480F67FD0EC034
:10199000808D68175CF447FD09C0818D481734F4C9
:1019A000F894628F438F81E0868F05C0F894628F30
:1019B000438F168E81E0878F7894868D089547FF38
:1019C000E7CFE2CF08950F931F93CF93DF93EC01FE
:1019D00089A1811103C088A1811123C00E94940AAA
:1019E0000A851B852C853D850617170728073907AB
:1019F00010F081E017C088A1882399F060EACE0139
:101A00000E942F0C8823A9F386FDF3CF6CEECE0144
:101A10000E942F0C482F4F7E6CE6CE010E94DA0BFD
:101A200019A280E0DF91CF911F910F910895CF937C
:101A3000DF93FC0120A12223E1F0EC010E94E30CE2
:101A4000811117C0F89442E060E0CE010E94DA0BE9
:101A500081E089A30E94940ADC01CB0182599F4F47
:101A6000AF4FBF4F8A879B87AC87BD87198A1E8E71
:101A70007894DF91CF91089590917806992389F019
:101A80009FE9980F9A3110F48052089590E5980FCD
:101A9000923010F48E5F089590ED980F9A3008F40C
:101AA000865A0895CF92DF92EF92FF920F931F9381
:101AB000CF93DF937C010E949B2C6C0101EE15E01B
:101AC000C0E0D0E0EC2FCC15DD0571F0CD31D105B3
:101AD00059F0F701EC0FFD1F84910E943C0DF801B5
:101AE00081938F012196EECFEE3120F4F0E0EF519B
:101AF000FA4F108281EE95E0DF91CF911F910F9107
:101B0000FF90EF90DF90CF9008950F931F93CF93A6
:101B1000DF931F92CDB7DEB78C0169830E94A42C9E
:101B20006981681741F0C8010F90DF91CF911F9133
:101B30000F910C94AC2C0F90DF91CF911F910F91CE
:101B400008950C94A42C0F931F93CF93DF93EC0173
:101B50008D85FE01E80FF11DE80FF11D0181128155
:101B6000AE859801B0E00E94102D24E630E040E000
:101B700050E00E94EE2CC801821B930B9A87898744
:101B800083E0169507958A95E1F71C870B87DF910F
:101B9000CF911F910F9108958F929F92AF92BF9214
:101BA000CF92DF92EF92FF920F931F93CF93DF9329
:101BB000EC01DB012C8D0C81822F602F0E94BA2C4E
:101BC000192F2F5F2A3F11F02C8F01C01C8ECE01E0
:101BD000810F911D810F911DFC01B187A087202FDE
:101BE00030E00E941F2D688379838A839B83E02FD6
:101BF000C12CD12C7601C394812F8C0D88809980C3
:101C0000AA80BB80C016F8F4602F0E94BA2CDE01B7
:101C1000A90FB11DA90FB11D18960D90BC91A02D53
:101C2000A70196010E94262D860E971EA81EB91E9A
:101C300088829982AA82BB82EC0DFFEFCF1ADF0A5D
:101C4000EF0AFF0AD9CF2E2F30E040E050E0C50167
:101C5000B4010E94EE2C3F832E83C901DF91CF9106
:101C60001F910F91FF90EF90DF90CF90BF90AF90BA
:101C70009F908F900895CF930E949410C82F8091C9
:101C8000CD06C81771F1C093CD06C13011F48FE0B5
:101C900001C08DE08093CE0680910D078823D1F09E
:101CA0008DEE96E00E94E30C811114C0C13021F446
:101CB0004091FE06406405C0C23061F44091FE06CA
:101CC0004F7B4093FE0660E08DEE96E00E94DA0BBB
:101CD000C093FC066091CE068091CF06CF910C9404
:101CE000AB10CF910895CF93C091CF068091F106AC
:101CF0000E947A112091F10630E0F901E658FD4E7C
:101D000094919093F206F901EA59FD4EE491F0E0C6
:101D1000EE0FFF1FEE5AFD4EA591B491B093F4065D
:101D2000A093F306EC91E92BEC9380EE95E0909371
:101D3000F6068093F5068CB58F7D8CBD80910D07DE
:101D4000811113C081E080930D0760EA8DEE96E06B
:101D50000E942F0C8823C9F360EA8DEE96E00E9462
:101D60002F0C86FDF9CF10920E076DE08C2F0E948C
:101D7000AB10C82F6CEE8DEE96E00E942F0C482F12
:101D80004F7E6CE68DEE96E00E94DA0BC0930B0757
:101D900068EE73E080E090E00E94B90A0E943B0E7A
:101DA0006091CE068091CF060E94AB1080910D0706
:101DB000882361F08DEE96E00E94E30C811106C04D
:101DC0004DE26CE08DEE96E00E94DA0B80910D07FB
:101DD000882399F082E08093FD068DEE96E00E94C4
:101DE000E30C81110AC04091FE0648604093FE0654
:101DF00060E08DEE96E00E94DA0B64E670E080E031
:101E000090E00E94B90A60917E0680917D06CF9194
:101E10000C94321180910D07882391F08DEE96E09D
:101E20000E94E30C81110CC064E88DEE96E00E94E4
:101E30002F0C482F446064E08DEE96E00E94DA0B90
:101E400080910D07811101C0FFCF8DEE96E00E94B9
:101E5000E30C811107C064E88DEE96E00E942F0C20
:101E600082FFEECF08958091CA022091C80283FFBD
:101E700021C021111FC00E940A0F6091CE066695F5
:101E800061508091CF06869528EC4DE152E18A5051
:101E90000E9438106091CE0666958091CF06869597
:101EA00028EC49E052E189500E94381081E080938B
:101EB000C9021EC084FF04C0222371F021500DC04E
:101EC00085FF0BC0822F90E0099714F42F5F05C0A7
:101ED000293019F420E001C029E02093C802809144
:101EE000CF06869542E352E161E086500E943810A9
:101EF00083E39FE008951F93CF93DF931F92CDB7A5
:101F0000DEB790E069830E94A10D182F6981862FAA
:101F100090E00E94A10D212F30E0A901582BCA01A9
:101F20000F90DF91CF911F910895CF93DF93D82F1A
:101F3000C0E0CD1751F080E20E943C0D682F8DEE7D
:101F400096E00E941215CF5FF4CFDF91CF910895F4
:101F5000AF92BF92CF92DF92EF92FF920F931F93B7
:101F6000CF93DF931F92CDB7DEB78983E62E590159
:101F70008981C42ED12CF090CF062091CC06B601D9
:101F8000680F711D8F2D90E0821B910986179707AE
:101F9000DCF4F41AF21AF50180816F2D681B4E2DC6
:101FA0008DEE96E00E94BA0CF50180810E94950F9B
:101FB000F5011082033111050CF04DC0F801E15517
:101FC000F94F81E0808347C069814E2D8DEE96E008
:101FD0000E94BA0C2091CF063091CC060331110536
:101FE000CCF40B59194FF801E65BFF4F1082498181
:101FF000822F90E0831B9109B601640F711D681751
:10200000790719F14981F601E40FF11D0197E817ED
:10201000F907D9F08981C80ED11C822F90E0831B6B
:102020009109C816D90679F46981F5018081681B88
:102030004E2D8DEE96E00E94BA0CF50180810E9433
:10204000950FF5011082F12C06C0F801E65BFF4FF9
:1020500081E08083DFCF8F2D0F90DF91CF911F9193
:102060000F91FF90EF90DF90CF90BF90AF900895C9
:10207000BF92CF92DF92EF92FF920F931F93CF9375
:10208000DF9300D0CDB7DEB7B82EF62E6A01C601B9
:102090002A830E949B2CE82E198203E110E09E0106
:1020A0002F5F3F4F482F6F2D8B2D0E94A80F8091DF
:1020B00012075A81882359F080916406882339F0E9
:1020C000583C08F4E3948E2D0E94950F1DC0583C97
:1020D00098F46F2D70E080911107681B7109252F0E
:1020E00030E062177307F1F48EE30E943C0D682F15
:1020F0008DEE96E00E941215C6010E94520DBC01A1
:102100008DEE96E00E941915109212070F900F9015
:10211000DF91CF911F910F91FF90EF90DF90CF90C3
:10212000BF90089580E2E1CF80910D07811102C038
:1021300080E008958DEE96E00E94E30C8111F8CFC7
:1021400060EA8DEE96E00E942F0C81FD02C0817046
:10215000089582E00895DF92EF92FF920F931F930C
:10216000CF93DF93C82FD62FD0900D07D11002C088
:10217000D12C6FC08DEE96E00E94E30C8111F8CF58
:102180000E949410811102C08091FC06CC2311F0B2
:10219000D11105C0813069F490E1DEE00EC08230DB
:1021A00021F0813029F790E101C09DE0CF3104F7A3
:1021B00005C08230E9F69DE0DCE0CAE1492F50E03D
:1021C0002D2F0D2E000C330B421753078CF2C7FD39
:1021D000C25ED7FDD90F2EE12C1B9D1B622F6170B3
:1021E00086E0689FB0011124092F017089E0089FE3
:1021F00080011124E22EE694F92EF69401151105C2
:1022000019F002511109F394609301074091FF0600
:10221000405E460F62E08DEE96E00E94DA0BE0929F
:102220000307C09305070093020740910007405F32
:10223000400F63E08DEE96E00E94DA0BF092040707
:10224000D0930607109207071092080781E0809349
:102250000B078D2DDF91CF911F910F91FF90EF9084
:10226000DF9008950F931F93CF93DF9310910D0785
:10227000111102C010E038C0C62FD82F8DEE96E0A5
:102280000E94E30C8111F6CF40E24D0F90910107BF
:10229000292F092E000C330B240F311D47FD3A95D1
:1022A0002034310538F700E10C0F20910207022E8F
:1022B000000C330B200F311D07FD3A9520323105FC
:1022C000C8F6D093FF06C0930007490F62E08DEE79
:1022D00096E00E94DA0B80910207402F480F63E0DE
:1022E0008DEE96E00E94DA0B812FDF91CF911F9146
:1022F0000F91089590E0FC01E658FD4E2491FC01F9
:10230000EA59FD4E8491882399F090E0880F991F37
:10231000FC01E45AFD4EA591B491FC01EE5AFD4E2C
:10232000859194918FB7F894EC91E22BEC938FBF49
:10233000089520917406A2ECB6E0E0E5F6E08C91F9
:10234000243038F436E9839FC0011124885E93401D
:1023500004C090E0919581959109918380831196B5
:10236000329686E0E436F80751F7089580910D071C
:10237000811102C081E008958DEE96E00E94E30C89
:102380008111F8CF60EA8DEE96E00E942F0C8295C5
:10239000817008950F931F93CF93DF9364E083E0E0
:1023A0000E947B0F90936F0680936E0685E090E00D
:1023B0000E94A10D8093650686E090E00E94A10D29
:1023C0008093720687E090E00E94A10D80937406CE
:1023D00006E616E0C8E061E06C0F8C2F0E947B0FD0
:1023E000F801819391938F01CE5FC031A1F780E115
:1023F00090E00E94A10D8093730681E190E00E941D
:10240000A10D8093750682E190E00E94A10D80935A
:10241000780683E190E00E94A10D8093790684E123
:1024200090E00E94A10D80937A0685E190E00E94E1
:10243000A10D80937B0686E190E00E94A10D809320
:102440007C0687E190E00E94A10D80937D0688E1E3
:1024500090E00E94A10D80937E06C9E1D0E0CE01FC
:102460000E94A10DFE01E755F94F80832196C232EB
:10247000D105A9F7CE010E94A10DFE01E25AF94F44
:1024800080832196CB32D105A9F7CE010E94A10D00
:102490008E010B59194FF80137978083CE010196B1
:1024A0000E94A10DF801369780832296CF34D10582
:1024B00061F78FE490E00E94A10D8093CC0680E547
:1024C00090E00E94A10D8093D00681E590E00E94EB
:1024D000A10D8093D10663E582E50E947B0F909366
:1024E000D3068093D20684E590E00E94A10D8093EC
:1024F000D40685E590E00E94A10D8093D50686E57F
:1025000090E00E94A10D8093DF0687E590E00E9495
:10251000A10D8093D60688E590E00E94A10D90E081
:102520009093D8068093D70689E590E00E94A10D8C
:102530008093D9068AE590E00E94A10D8093DA0687
:102540008BE590E00E94A10D8093AD068CE590E0B4
:102550000E94A10D8093AE068DE590E00E94A10D32
:102560008093CB06CEE5D0E0CE010E94A10DFE0106
:10257000EB59F94F858F2196C436D105A9F765E649
:1025800084E60E947B0F9093E8068093E70686E638
:1025900090E00E94A10D80937F0668E687E60E9486
:1025A0007B0F9093DC068093DB066AE689E60E9447
:1025B0007B0F9093DE068093DD06CBE6D0E0CE0164
:1025C0000E94A10DFE01EB59F94F818F2196CF3664
:1025D000D105A9F76CEF8BEF0E947B0F90937706E4
:1025E000809376066EEF8DEF0E947B0F9093D3065B
:1025F0008093D206DF91CF911F910F9108951F9381
:10260000CF93DF931F92CDB7DEB7162F642F90E0E4
:1026100059830E94850D5981652F812F90E00F907D
:10262000DF91CF911F910C94850D0F931F93CF9342
:10263000DF9340916E0650916F0664E083E00E9444
:10264000FF126091650685E090E00E94850D609123
:10265000720686E090E00E94850D6091740687E026
:1026600090E00E94850DC0E0D0E0FE01EB59F94FEB
:10267000418152816C2F675F8C2F885F0E94FF120F
:102680002296C830D10589F76091730680E190E009
:102690000E94850D6091750681E190E00E94850D94
:1026A0006091780682E190E00E94850D6091790644
:1026B00083E190E00E94850D60917A0684E190E0CC
:1026C0000E94850D60917B0685E190E00E94850D5A
:1026D00060917C0686E190E00E94850D60917D0608
:1026E00087E190E00E94850D60917E0688E190E090
:1026F0000E94850DC9E1D0E0FE01E755F94F6081E8
:10270000CE010E94850D2196C232D105A9F7FE01A6
:10271000E25AF94F6081CE010E94850D2196CB329D
:10272000D105A9F78E010B59194FF8013797608130
:10273000CE010E94850DF80136976081CE01019689
:102740000E94850D2296CF34D10561F76091CC06A9
:102750008FE490E00E94850D6091D00680E590E0C6
:102760000E94850D6091D10681E590E00E94850D63
:102770004091D2065091D30663E582E50E94FF1294
:102780006091D40684E590E00E94850D6091D506A5
:1027900085E590E00E94850D6091DF0686E590E07A
:1027A0000E94850D6091D60687E590E00E94850D18
:1027B0006091D70688E590E00E94850D6091D9066A
:1027C00089E590E00E94850D6091DA068AE590E047
:1027D0000E94850D6091AD068BE590E00E94850D0D
:1027E0006091AE068CE590E00E94850D6091CB066D
:1027F0008DE590E00E94850DCEE5D0E0FE01EB591D
:10280000F94F658DCE010E94850D2196C436D10504
:10281000A9F74091E7065091E80665E684E60E9434
:10282000FF1260917F0686E690E00E94850D409140
:10283000DB065091DC0668E687E60E94FF124091B5
:10284000DD065091DE066AE689E60E94FF12CBE6BD
:10285000D0E0FE01EB59F94F618DCE010E94850D4C
:102860002196CF36D105A9F74091D2065091D306D3
:102870006EEF8DEFDF91CF911F910F910C94FF12AE
:102880002F923F924F925F926F927F928F929F9280
:10289000AF92BF92CF92EF920F93CF93DF934C0101
:1028A000EB013A0159018A5F91098D3D954008F489
:1028B00050C088819981AA81BB81892B8A2B8B2B5F
:1028C00081F40E94F30A688379838A839B83C11011
:1028D00047C087ED881686E098060CF042C0E02ECF
:1028E00040C00E94F30A288139814A815B811B0123
:1028F0002C01221A330A440A550AF301808191817E
:10290000A0E0B0E082159305A405B50548F5F501F2
:1029100080819181019691838083F30120813181AF
:102920002B3F310548F0892B39F0285E3340318345
:102930002083F50111821082F7ED8F16F6E09F06D5
:102940000CF4E02E0E94F30A688379838A839B83C8
:1029500008C0188219821A821B82F5011182108226
:10296000E12C8E2DDF91CF910F91EF90CF90BF9002
:10297000AF909F908F907F906F905F904F903F901F
:102980002F9008958EBD0DB407FEFDCF8EB508952E
:10299000E0912F06F09130069091310620E030E072
:1029A000815068F0220F331F4491492351E009F40C
:1029B00050E0990F11F4319691E0252BF1CF9093CF
:1029C0003106F0933006E0932F06C9010895CF92A7
:1029D000DF92EF92FF920F931F93CF93DF936C01DF
:1029E0007A018B01C0E0D0E0CE15DF0589F0D80177
:1029F0006D918D01D601ED91FC910190F081E02D5A
:102A0000C6010995892B11F47E0102C02196ECCFF5
:102A1000C701DF91CF911F910F91FF90EF90DF9051
:102A2000CF900895DC01ED91FC910190F081E02DB3
:102A300009946115710579F0FB0101900020E9F717
:102A40003197AF01461B570BDC01ED91FC910280E1
:102A5000F381E02D099480E090E00895CF93DF9317
:102A6000CDB7DEB7A0970FB6F894DEBF0FBECDBFCF
:102A7000789484B5826084BD84B5816084BD85B559
:102A8000826085BD85B5816085BD80916E00816065
:102A900080936E001092810080918100826080930B
:102AA000810080918100816080938100809180000D
:102AB0008160809380008091B10084608093B10038
:102AC0008091B00081608093B00080917A00846032
:102AD00080937A0080917A00826080937A0080915E
:102AE0007A00816080937A0080917A008068809378
:102AF0007A001092C1001FB7F894809119038111D8
:102B000024C0E0E7F2E18491E4E8F2E19491E82F57
:102B1000F0E0EE0FFF1FE45AFD4EA591B491EC9149
:102B2000E92321F461E08AE00E94480A8AE00E94D9
:102B30007A118CB580618CBD8CB580648CBD8DE0C4
:102B40000E947A118BE00E947A11809119038F5FA5
:102B5000809319031FBF8CB58C7F8CBD8DB58160B0
:102B60008DBD0E94730E00E010E060E0C8010E947D
:102B7000850D0F5F1F4F011524E01207B1F70FEF0E
:102B800013E06DEDC8010E94850D015011090B3F46
:102B900033E01307B1F781E090E00E94A10D853189
:102BA00008F07CC0893008F471C08C8F0E94CA1173
:102BB0008C8D8D30C8F481E08093D0068093D1064F
:102BC00024EC39E03093D3062093D2061092D40639
:102BD00094E99093D5068093DF068093D6061092F1
:102BE000D8061092D70602C08D3019F41092D9067B
:102BF00002C08E3091F483E08093DA0689E08093FE
:102C0000CB068091CF06869586958093AD06809100
:102C1000CE0681508093AE0602C08F30C1F481E0B1
:102C20008093E0068093E1068093E2068093E306BA
:102C30008093E4068093E50680919D068F5F8093E4
:102C40009D068091A3068F5F8093A30602C0833107
:102C500040F41092E8061092E70681E080937F0628
:102C600002C0843151F087E19CEF9093DC068093A1
:102C7000DB069093DE068093DD0684E68093E9060A
:102C80008093EA068093EB068093EC060E9415136E
:102C900065E181E090E00E94850D02C00E94CA11AA
:102CA00085E696E00E94A30D60917E0680917D06E8
:102CB0000E9432110E94B6118823E1F30E940A0F8C
:102CC0008091750680932A030E949911E5EBF5E047
:102CD0004BE04E0F4A8F11925A8D5E13FCCFE2EA01
:102CE000F5E083E18E0F11928E13FDCF1092C1009B
:102CF00086E08093C20012E01093C0001092C500DD
:102D000080E18093C40088E98093C10068EE73E09D
:102D100080E090E00E94B90A83EA93E0181B1B8FC1
:102D2000212C22E0322E0E94F30A8091DC05909142
:102D3000DD05A091DE05B091DF05892B8A2B8B2B59
:102D400051F40E94F30A6093DC057093DD058093D3
:102D5000DE059093DF050E94F30A0091D8051091DB
:102D6000D9052091DA053091DB05DC01CB01801B10
:102D7000910BA20BB30B853F9140A105B10580F0EB
:102D80000E94F30A6093D8057093D9058093DA0501
:102D90009093DB059091640681E089278093640617
:102DA0000E94940A0091D4051091D5052091D60572
:102DB0003091D705DC01CB01801B910BA20BB30B2B
:102DC00081319742A105B10510F40C94FC220E94B8
:102DD000940A6093D4057093D5058093D60590939B
:102DE000D7050E943B0E60E28BEC92E00E94380A0D
:102DF00084E6809344031092430395E0692E712C7E
:102E00009091430380914403981728F50E94940AF7
:102E10000091D4051091D5052091D6053091D705A4
:102E2000DC01CB01801B910BA20BB30B80329E44C3
:102E3000A105B10510F40C9406238091D205909160
:102E4000D30501969093D3058093D205853F914099
:102E500040F40C94FC229813F0CF1092D3051092FA
:102E6000D2050E94B6118823E1F38091D20590919A
:102E7000D305853F9140A8F06091CE06669580917C
:102E8000CF06869528EC40EF51E18C500E94381017
:102E900081E0809328011092D3051092D2050C9402
:102EA000FC2280912801882321F0109228010E94A1
:102EB0000A0F1091D0058091D105811721F00E9451
:102EC0000A0F1093D10580917506813011F481EBC2
:102ED00001C080EB0E943C0D809326011091CF052C
:102EE000A090CD05B090CE058090CB059090CC05FC
:102EF0008091C9059091CA05111184C0C12C08E0C8
:102F0000E02E04E02AE336E042E356E064E476E0B3
:102F10000E944014F82E8091440690914506A0919D
:102F20004606B0914706892B8A2B8B2B31F482EE13
:102F300094E09093330680933206C12CB0E1EB2EDF
:102F400000E22CE336E044E356E068E476E0C401B6
:102F50000E944014F82A8091480690914906A09159
:102F60004A06B0914B06892B8A2B8B2B31F482EECB
:102F700094E09093350680933406C12CA2E0EA2EAB
:102F800001E02EE336E046E356E060E476E0C5017A
:102F90000E944014F82A8091400690914106A09129
:102FA0004206B0914306892B8A2B8B2B31F482EE9B
:102FB00094E090933706809336061A821982CC24C7
:102FC000C394F0E8EF2E00E49E012F5F3F4F48E3EB
:102FD00056E06CE476E0C5010E9440148F294091D0
:102FE0004C0650914D0660914E0670914F06452B50
:102FF000462B472B41F420ED37E0309339062093E0
:10300000380601C080E08093CA0211115DC0982F7C
:103010009474943411F00C94752685FD02C00C94C0
:1030200075268DEE96E00E94E30C882339F064E665
:1030300070E080E090E00E94B90AF3CF8DEE96E058
:103040000E94170D8DEE96E00E94E30C882339F064
:1030500064E670E080E090E00E94B90AF3CF0E943D
:10306000730E0C947526882341F08150E82FF0E010
:10307000EB59F94F938D9F7DB1F3148E85E0E9E212
:10308000F1E0DE01189601900D928A95E1F787E054
:10309000EEE2F1E0DE01119601900D928A95E1F7E2
:1030A000BE016F5F7F4F80E896E00E94442D892B20
:1030B00039F4BE01685F7F4F80E896E00E944D2D95
:1030C0001092C8050E940A0F8091CF05811146C158
:1030D0008091C505882309F441C18091CE069FEFF8
:1030E000980FEAE8F6E02081281708F090833296DE
:1030F00026E0E03BF207B9F78091C1059091C20547
:10310000A091C305B091C405892B8A2B8B2B51F458
:103110000E94F30A6093C1057093C2058093C305B2
:103120009093C4050E94F30A0091C1051091C20555
:103130002091C3053091C405DC01CB01801B910BAC
:10314000A20BB30B88389341A105B10530F560910E
:10315000CE06669561508091CF06869528EC4DEAA3
:1031600051E18B500E9438106091CE066695809197
:10317000CF06869528EC46E951E18B500E94381025
:103180006091CE0666956F5F8091CF06869528EC9C
:1031900040E851E18A500E9438101091CA0210FF95
:1031A0000EC08091C005E82FF0E0EB54FA4F10827A
:1031B0008F5F8093C0058B3011F41092C005209171
:1031C00074069091C005892F2430A1F09093C0051A
:1031D0000091C005802F90E0AC014B545A4F6A011A
:1031E00021E0DA012C93063090F40EC08F5F90E05E
:1031F0008B3049F3E82FF0E0E65EFE4F9081992393
:10320000A9F38093C005E4CFBB24B39412C00A3065
:1032100018F088E0800F05C00697982F990F890F46
:103220008A5F8093C0058091C005823168F7E3E032
:10323000BE2EE12CB12FB071AB2EFF24F394E12F01
:10324000E0729E2EF12FF4708F2E212F2870722E97
:10325000AA2081F0E091C005F0E0EE0FFF1FEB59CE
:10326000F94F85A1882331F0815085A30E940A0F70
:10327000F092C7059920B9F0E091C005F0E0EE0F9B
:10328000FF1FEB59F94F45A1242F30E08091CE0666
:1032900090E001972817390734F44F5F45A30E9447
:1032A0000A0FF092C705882081F0E091C005F0E098
:1032B000EE0FFF1FE757F94F8081882331F08150CF
:1032C00080830E940A0FF092C705772011F12091A8
:1032D000C00530E0F901EE0FFF1FE757F94F60819D
:1032E000462F50E08091CF0690E001977091CC0678
:1032F000871B91094817590764F4D901AE55BA4F95
:103300008C91811106C06F5F60830E940A0FF0925A
:10331000C7058091C0058F5F8093C005E394EB10D3
:1033200097CF0093C00516FF19C0D6011C920E94CA
:1033300099111092C50581E0809319011092C10581
:103340001092C2051092C3051092C405E5EBF5E09A
:103350001192BA8DBE13FCCF0E940A0F8091A10575
:10336000882399F06091CE0666958091CF06869568
:1033700028EC43E751E186500E94381068EE73E074
:1033800080E090E00E94B90AF9CF8091C9028823B9
:1033900009F428C168EB7BE080E090E00E94B90A64
:1033A0000E940A0F81EA93E090935307809352079B
:1033B00088E690E09093300680932F0681E080931A
:1033C000310684E00E94C81480934B0784E00E9479
:1033D000C81480934C0782E00E94C81480934D0764
:1033E00080E10E94C8141092550710925407109261
:1033F00051071092500710924F0710924E071092EB
:10340000130700E010E0AA24A39485E197E096E377
:10341000B92EB80E9924939485E1C82E87E0D82E52
:1034200076018091500790915107892B89F5E091A1
:103430002F06F09130069491809131069823880FE1
:1034400019F08093310607C0909231063196F093BF
:103450003006E0932F06911105C088E00E94C81441
:10346000282F39C080914B070E94C81480959095F1
:1034700090934F0780934E0780914C070E94C81489
:1034800020914D07820F911D909351078093500713
:1034900080915007909151079C0121503109309340
:1034A000510720935007892BA9F0209154073091A0
:1034B000550780914E0790914F07820F931FB101DE
:1034C0000E94DA2CE0915207F0915307E80FF91FA0
:1034D000208101C020E08091540790915507B101EF
:1034E0000E94DA2CE0915207F0915307E80FF91F80
:1034F000208380915407909155070196909355072A
:1035000080935407F70121937F01BE128ACFF02EDA
:1035100060E08091F1060E94480A80E00E94C21497
:103520008091CD06813011F480E401C080E00E94DA
:10353000C21489E00E94C2148F2D0E94C214F12C83
:103540008AE00E94C2148F2D0E94C2148BE00E9458
:10355000C214D6018D916D010E94C214F394B6E39A
:10356000FB12EECF88E00E94C21480EA0E94C214CF
:1035700080EA0E94C21485FDFBCF80E00E94C21445
:103580008091CD06813011F480E401C080E00E947A
:10359000C21461E08091F1060E94480A80911307ED
:1035A0008A2580931307882311F061E001C060E051
:1035B000809114070E94480A64E170E080E090E086
:1035C0000E94B90A0F5F1F4F0115E1E01E0709F0C5
:1035D00023CF1092C9020E94730E81E08093A1054F
:1035E0000C94FC228091A003882309F459C0809197
:1035F000CF05811155C06091CE06669561508091CE
:10360000CF06869528EC4AE551E18C500E9438108F
:103610006091CE0666958091CF06869528EC49E4A8
:1036200051E188500E9438101091CA0213FF07C060
:1036300080917D068F5F80937D0681E001C080E0F0
:1036400012FF06C080917D06815080937D0681E047
:1036500014FF06C080917E06815080937E0681E033
:1036600015FF06C080917E068F5F80937E0681E005
:103670009091C705982B9093C705882341F00E942D
:103680000A0F60917E0680917D060E94321110FF24
:1036900007C01092A00381E0809319010E940A0FD5
:1036A0009091CF0580919E039111C6C090919F0388
:1036B000992309F4C1C0811105C00E940A0F81E05D
:1036C00080939E031091CA0212FF0EC08091720671
:1036D000882351F081508093720685E696E00E941F
:1036E000A30D81E08093C70513FF0EC08091720681
:1036F000833050F48F5F8093720685E696E00E94D7
:10370000A30D81E08093C70514FF17C0E0917206F6
:10371000F0E0EE0FFF1FEB59F94F81819281811587
:103720000DE7900750F4C2969283818385E696E078
:103730000E94A30D81E08093C70515FF17C0E0919B
:103740007206F0E0EE0FFF1FEB59F94F8181928175
:103750008D3211E0910750F0C2979283818385E604
:1037600096E00E94A30D81E08093C7052091720628
:1037700030E02F5F3F4F6091CE066695615080919B
:10378000CF068695E12C04E911E040E451E1845034
:103790000E94C52BE0917206F0E0EE0FFF1FEB597F
:1037A000F94F418152816091CE0666958091CF0696
:1037B00086954801A12CB12C72E0C72EEFE8EE2EC1
:1037C000E1E0FE2E01E020E083500E94352C2091A4
:1037D0006E0630916F066091CE0666956F5F8091A0
:1037E000CF068695F2E0EF2E0FE811E047E351E1B6
:1037F00087500E94C52B80919F03882369F06091B8
:10380000CE0666956E5F8091CF06869528EC43E2E2
:1038100051E189500E94381080919F03882309F458
:10382000EBC68091CD059091CE058A3F91050CF0B5
:10383000E3C610929F03E0C6882321F00E940A0F7E
:1038400010929E0380919D03882311F18091C705FA
:103850008823F1F08091A00381111AC00E941513F2
:103860001092C70510929D036091CE0666958091D7
:10387000CF06869528EC44E151E187500E9438102C
:103880006CED75E080E090E00E94B90A0E940A0F9A
:103890001091CF0511111FC09091CA02809119019A
:1038A00096FD02C08823B9F081110BC081E080939E
:1038B00019010E940A0F83E39FE0909318018093FF
:1038C0001701E0911701F0911801099590931801E3
:1038D0008093170191C680919C03882331F0109248
:1038E0009C031092C8020E940A0F11112BC08091F4
:1038F0009B03882339F1E0917406F0E0EE0FFF1F7F
:10390000EF56FC4F20911501309116018081918175
:1039100028173907B9F00E94F30A60938D0370935A
:103920008E0380938F0390939003E0917406F0E0F0
:10393000EE0FFF1FEF56FC4F80819181909316018F
:10394000809315011092D005E0917406F0E0EE0F1F
:10395000FF1FEF56FC4F20813181809154069091DA
:103960005506821793072CF581E08093D00580934C
:103970001A019091B50591118093120740918B0324
:1039800050918C0384E9882E81E0982EA12CB12CD3
:1039900092E0C92E23E9E22E21E0F22E01E020E0A0
:1039A00060918A06809189060E94352C8093A20539
:1039B00002C010921A01E0917406F0E0EE0FFF1FB2
:1039C000EF56FC4F20813181809150069091510635
:1039D00082179307BCF58091D0058F5F8093D00547
:1039E00081E080931D01198210E8E12E16E0F12E8E
:1039F000F70101900020E9F7AF014158564003E07C
:103A000010E09E012F5F3F4F6091900680918F06DE
:103A10000E94A80F8093A5058091B805882311F412
:103A20000C941B2780916406882311F40C941B27A7
:103A3000F70101900020E9F7CF01815896400E94DC
:103A4000950F02C010921D01E0917406F0E0EE0F98
:103A5000FF1FEF56FC4F20813181809156069091D7
:103A60005706821793070CF0A4C08091D0058F5F92
:103A70008093D00591E090931B018091D006811135
:103A800019C08091B6058111909312074091890366
:103A900050918A03E4E98E2EE1E09E2EAA24A3949D
:103AA000B12CCC24C394A5E9EA2EA1E0FA2E00E0C3
:103AB00021E020C020917906222321F02091E10607
:103AC000211121C08091B605882319F081E08093EF
:103AD000120754E9852E51E0952EAA24A394B12C07
:103AE000CC24C39477E9E72E71E0F72E00E021E0C3
:103AF00047EE53E060918C0680918B060E94352C36
:103B00008093A30558C02BEE28872CEE29871A86B0
:103B100021EE298322EE2A831B82823031F498879A
:103B2000898789E089838AE08A83F0908C061D86E4
:103B30006E0128E0C20ED11CF60101900020E9F7C9
:103B40003197AF014C195D09FA94F7FCF12C01E0B3
:103B500010E09E01235F3F4F6F2D80918B060E94E6
:103B6000A80F8093A3058091B605F394882311F4E0
:103B70000C94262780916406882311F40C94262740
:103B800082E00E94950FF60101900020E9F731973D
:103B9000AF014C195D0901E010E09E01235F3F4F2A
:103BA0006F2D80918B060E94A80F82E00E94950FD6
:103BB00002C010921B01E0917406F0E0EE0FFF1FAF
:103BC000EF56FC4F20813181809158069091590623
:103BD0008217930774F58091D0058F5F8093D0058D
:103BE00081E080931E019091B90591118093120795
:103BF00080918703909188036AE070E00E94DA2C3C
:103C0000AB0194E9892E91E0992E24E0A22EB12CEB
:103C1000CC24C39439E9E32E31E0F32E01E021E016
:103C200060919206809191060E94352C8093A605A2
:103C300002C010921E01E0917406F0E0EE0FFF1F2B
:103C4000EF56FC4F2081318180915A0690915B069E
:103C5000821793070CF064C08091D0058F5F80932A
:103C6000D00581E080931C01209179068091850325
:103C7000909186032130A9F52091E206213089F543
:103C800060917006709171060E94C62C88E86530BC
:103C900018F081506150FBCF8093120188E8861B99
:103CA00080931101198202E010E09E012F5F3F4FC7
:103CB00044E060918E0680918D060E94A80F80934B
:103CC000A4058091B705882311F40C9446278091B0
:103CD0006406882311F40C94462784E00E94950F13
:103CE00021C02091B705222319F021E0209312076B
:103CF000B4E98B2EB1E09B2E12E0A12EB12CC12C89
:103D00000FE8E02E01E0F02E01E020E0AC01609130
:103D10008E0680918D060E94352C8093A40502C0EA
:103D200010921C0110917906113051F48091E00637
:103D3000813031F48EE70E943C0D80930E0102C069
:103D400010920E01E0917406F0E0EE0FFF1FEF56A7
:103D5000FC4F2081318180915C0690915D06821735
:103D600093070CF02AC18091D0058F5F8093D00516
:103D7000113009F08FC08091DF06813009F08AC0D0
:103D800045E7642E43E0742E4DE653E05F874E878F
:103D90000AE011E059E6C52E53E0D52EEE24E39457
:103DA000F12C73EA572EECE94E2E0E94F30AEE85B1
:103DB000FF85A191B191FF87EE87F301808091800B
:103DC000A280B3809B01AC01281939094A095B091B
:103DD0002D8F3E8F4F8F58A380E197E2BD010E9447
:103DE000DA2CCB01770FAA0BBB0B8D8C9E8CAF8C82
:103DF000B8A088159905AA05BB05E8F40E94F30A46
:103E0000D3016D937D938D939C931397E0FC05C034
:103E1000F80180818150808304C0D8018C918F5F2C
:103E20008C93F8018081843A08F04082D8018C910B
:103E30008C3908F45C92F80181918F01D6018D9341
:103E40006D01B4E06B0E711CEFEFEE1AFE0AF5E0A7
:103E5000EF16F10409F0A9CF198206E010E09E01E7
:103E60002F5F3F4F41E060919606809195060E943A
:103E7000A80F8093A8058091BB05882311F40C94AA
:103E80004E2780916406882311F40C944E2760E23B
:103E90000C9450278BE68093660382E78093670338
:103EA000109268038091BB05882319F081E080930C
:103EB000120740916D0350916E0394E9892E91E0B1
:103EC000992E26E0A22EB12CCC24C39436E6E32E04
:103ED00033E0F32E01E021E0609196068091950693
:103EE0000E94352C8093A8058091BC05882319F089
:103EF00081E08093120740916F035091700314E9A1
:103F0000812E11E0912E09E0A02EB12CCC24C39477
:103F100086E6E82E83E0F82E00E021E060919C0622
:103F200080919B060E94352C8093AB058091BD0546
:103F3000882319F081E0809312074091710350911A
:103F40007203F4E98F2EF1E09F2EACE0AA2EB12C83
:103F5000CC24C394B6E6EB2EB3E0FB2E00E021E0C8
:103F60006091A2068091A1060E94352C8093AE0537
:103F70008091BE05882319F081E08093120740915B
:103F800073035091740364E9862E61E0962E7FE0FE
:103F9000A72EB12CCC24C394E6E6EE2EE3E0FE2E51
:103FA00001E021E06091A8068091A7060E94352CCF
:103FB0008093B10581E011E002C080E010E0E09163
:103FC0007406F0E0EE0FFF1FEF56FC4F4081518169
:103FD00020915E0630915F06241735070CF097C0DC
:103FE0008091D0058F5F8093D00580910E018093E2
:103FF00008018091BB05882319F081E080931207A6
:1040000040915E0350915F0360919806610F9EE0BE
:10401000892E91E0992E27E0A22EB12CCC24C394B6
:1040200035E9E32E31E0F32E01E021E0809197069F
:104030000E94352C8093A9058091BC05882319F036
:1040400081E0809312074091600350916103609179
:104050009E06610FB4E98B2EB1E09B2E0AE0A02EE4
:10406000B12CCC24C39487E0E82E81E0F82E00E048
:1040700021E080919D060E94352C8093AC058091B3
:10408000BD05882319F081E08093120740916203F7
:10409000509163036091A406611BE4E98E2EE1E078
:1040A0009E2EFDE0AF2EB12CCC24C394A7E0EA2EC7
:1040B000A1E0FA2E00E021E08091A3060E94352CB9
:1040C0008093AF058091BE05882319F081E080932D
:1040D000120740916403509165036091AA06611B29
:1040E0002EE0822E21E0922E30E1A32EB12CCC24A2
:1040F000C39475E9E72E71E0F72E01E021E080918D
:10410000A9060E94352C8093B2051F5F81E0E091E3
:104110007406F0E0EE0FFF1FEF56FC4F4081518117
:104120002091600630916106241735070CF0A1C07C
:104130008091D0058F5F8093D005809156038111C7
:1041400003C081E08093560380912601809304018F
:1041500080910E01809305018091BB05882319F0A1
:1041600081E08093120740914E0350914F0360917C
:104170009A06610FAEE08A2EA1E09A2EB8E0AB2E2F
:10418000B12CCC24C39406E2E02E01E0F02E01E035
:1041900020E0809199060E94352C8093AA05809199
:1041A000BC05882319F081E08093120740915003E9
:1041B000509151036091A006610F74E9872E71E060
:1041C000972EEBE0AE2EB12CCC24C394F4E0EF2E6E
:1041D000F1E0FF2E00E020E080919F060E94352C48
:1041E0008093AD058091BD05882319F081E080930F
:1041F000120740915203509153036091A606611B30
:1042000094E9892E91E0992E2EE0A22EB12CCC2497
:10421000C39434E0E32E31E0F32E00E020E08091FF
:10422000A5060E94352C8093B0058091BE05882399
:1042300019F081E080931207409154035091550387
:104240006091AC06611B1EE0812E11E0912E01E110
:10425000A02EB12CCC24C39486E2E82E81E0F82E67
:1042600001E020E08091AB060E94352C8093B305DD
:1042700081E080932001809321018093220180932B
:104280002301E0917406F0E0EE0FFF1FEF56FC4FA4
:1042900020813181809152069091530682179307B5
:1042A0000CF0D5C08091D0058F5F8093D00581E060
:1042B00080931F0119821A828091790640914A03E6
:1042C00050914B0360914C0370914D03813081F507
:1042D0008091E406813061F5809146039091470317
:1042E000A0914803B09149034A015B01881A990AD9
:1042F000AA0ABB0A09EE801603E09006A104B104E5
:1043000068F0809103018F5F80930301409346031F
:1043100050934703609348037093490380910301CE
:104320008C3918F084E9809303018091030189831B
:104330008091BA05882319F081E080931207E090FC
:104340009406F0909306CB01BA0128EE33E040E0EA
:1043500050E00E94EE2C49015A01C9012C3331056D
:1043600030F06CE370E00E94C62C362F01C030E0C4
:1043700014EC130360011124C80CD91C40E061E166
:1043800076E0832F90E00E94D62AB82E01E0080F35
:104390008AE30E943C0DEB2DF0E0EF5EF94F808345
:1043A00040E06AE173E0C6010E94D62A182F2AE095
:1043B000C216D10458F4B394B39480E30E943C0D28
:1043C000E02FF0E0EF5EF94F80830B2D8AE193E060
:1043D000DC01302F381BE32FEA0F2A2F281B21176F
:1043E00030F42D91F0E0EF5EF94F2083F4CFE02F11
:1043F000E10FF0E0EF5EF94F1082E1E1F6E00190AD
:104400000020E9F73197E151F640AE014F5F5F4F71
:104410005A01DA010D900020E9F71197A41BB50BA2
:10442000DA2EDE0E188605E010E09E01285F3F4F71
:104430004D2D6E2D8F2D0E94A80F8091120788237D
:1044400009F48DC580916406811197C588C51092C5
:104450001F018091DA0687FD10C0E0917406F0E03C
:10446000EE0FFF1FEF56FC4F2081318180916206D5
:10447000909163068217930754F08091C5058823B5
:1044800009F44FC080917406843008F04AC08091CE
:10449000D0058F5F8093D00581E0809324018091C7
:1044A00079068130E9F48091E3068130C9F41982FC
:1044B00002E110E09E012F5F3F4F42E06091AE06A7
:1044C0008091AD060E94A80F8093B4058091BF052E
:1044D000882309F456C580916406811159C551C5D8
:1044E00074E9872E71E0972EE2E1AE2EB12CC12C3B
:1044F000FBE9EF2EF1E0FF2E01E020E040E050E08C
:104500006091AE068091AD060E94352C8093B40573
:104510008091BF05882339F08091640681113AC5E6
:1045200002C0109224014091D9064423F9F08091F1
:10453000C50581111BC08091A003811117C04230B5
:1045400010F0455001C040E08091CE068695480F9E
:104550006091CF06669561508DEE96E00E94BA0C90
:1045600065E371E08DEE96E00E941915C0908D0311
:10457000D0908E03E0908F03F0909003C114D1048B
:10458000E104F104F1F00E94F30ADC01CB018C1983
:104590009D09AE09BF09893B9B40A105B10588F083
:1045A000E0917406F0E0EE0FFF1FEF56FC4F2091F4
:1045B000150130911601808191812817390709F47E
:1045C000EDC480914503811117C08091C5058823F2
:1045D00099F0E2EAF5E080E090E02191222329F0D1
:1045E000DC01AB59B94F94962C9302968632910513
:1045F000A1F781E08093450380E090E0892B11F4DE
:104600000C9493160E9400000C9493162FB7F89404
:104610008091C2029091C3024091C4025091C502A0
:10462000841B950B2FBF97FF06C02091C6023091C7
:10463000C702820F931F892B79F01091430381E009
:10464000810F809343038BEC92E00E94FA09E12FE3
:10465000F0E0EF55FC4F808380914303813031F4CB
:104660008091A103853011F01092430380914303A0
:10467000823079F48091A20393E0980F90934403E1
:1046800083598F3130F01092430384E6882E809254
:104690004403009144038091430380130C9400175A
:1046A000E3EAF3E060E070E0CB012B8D2E0F2017E2
:1046B00030F42191620F711D811D911DF6CF10E024
:1046C000980123503109032E000C440B550B0E9416
:1046D000EE2CF801E056FC4F808190E0A0E0B0E0C5
:1046E000281739074A075B0711F00C941D178091B2
:1046F000A30390E0982F88272091A403822B6AE0DF
:1047000070E00E94DA2C70938C0360938B0380ED31
:1047100097E09093CA058093C9058091A70390E024
:10472000982F88272091A803822B88519C4F909323
:10473000CC058093CB058091A90390E0982F882722
:104740002091AA03822B88519C4F9093CE05809391
:10475000CD058091B40390E0982F88272091B50370
:10476000822B90938803809387031091B30317FFE4
:1047700002C00C941D178091CF05811128C0112310
:1047800009F4B8C00E94F30A60933F03709340039A
:10479000809341039093420381E0809328018093AA
:1047A0009B03E0917406F0E0EE0FFF1FEF56FC4F05
:1047B00080819181909316018093150110928D0351
:1047C00010928E0310928F031092900393C01816CC
:1047D0000CF090C080903F0390904003A090410364
:1047E000B090420311114FC081149104A104B1048F
:1047F000E1F0C0903B03D0903C03E0903D03F0908B
:104800003E030E94F30AC818D908EA08FB08DC0135
:10481000CB018C0D9D1DAE1DBF1D80933B0390935E
:104820003C03A0933D03B0933E0310923F031092CC
:104830004003109241031092420381E080932801CB
:1048400080916506109277061092760640E050E05F
:104850006CEF882341F08BEF0E94FF1210927706D5
:104860001092760603C08BEF0E94FF128091D20651
:104870009091D306892BF1F540E050E06EEF8DEF7B
:104880000E94FF1237C06530710574F481149104E1
:10489000A104B10449F410924A0310924B03109200
:1048A0004C0310924D0326C089288A288B2851F486
:1048B0000E94F30A60933F03709340038093410387
:1048C000909342030E94F30AC0903F03D0904003AC
:1048D000E0904103F0904203DC01CB018C199D096B
:1048E000AE09BF0980934A0390934B03A0934C03F6
:1048F000B0934D031093CF058091370490E0982F2B
:104900008827209138047C01E22AF0928603E09205
:104910008503E1EAF3E00DE613E01F870E87AEE5BD
:104920004A2EA3E05A2EBEE4CB2EB3E0DB2E03E3E7
:1049300013E01B8B0A8B21E933E01D8B0C8BDF8A84
:10494000CE8A598E488E0DE613E0198B088B00E055
:1049500010E040E0812C912C5401DF01A35ABF4F9D
:104960008C9190E0982F882711965C91852B67E0B9
:1049700070E00E94DA2CA889B9896D937D93B98B78
:10498000A88BDF01A75ABF4F8C9190E0982F882702
:1049900011965C91852BA88DB98D8D939D93B98FC0
:1049A000A88FDF01AB5ABF4F8C9190E0982F8827DA
:1049B00011965C91852BAE89BF898D939D93BF8B9A
:1049C000AE8BDF01A55ABF4F8C9190E0982F8827BE
:1049D00011965C91852BAC89BD898D939D93BD8B80
:1049E000AC8BDF01A95ABF4F8C9190E0982F88279C
:1049F00011965C91852B8630910574F0D801A55DE8
:104A0000BC4F8D939C93092E000CAA0BBB0B880EF8
:104A1000991EAA1EBB1E4F5FD801AF55BC4F1A96F8
:104A20008C911A9790E0982F88271B965C91852B84
:104A3000D9018D939D939D013A960E5F1F4F0830CB
:104A4000110509F08ACF442361F0242F30E040E0C3
:104A500050E0C501B4010E94EE2C309388032093EE
:104A600087038091D7069091D8064AE0489F90012D
:104A7000499F300D11248091870390918803280F5E
:104A8000391F309388032093870300915E031091B0
:104A90005F038091600390916103080F191F80915B
:104AA000620390916303080F191F80916403909132
:104AB0006503080F191F10938A03009389036BE2A3
:104AC00073E04EE5A42E43E0B42E4DE653E0EEE451
:104AD000F3E081919191C296853B910510F00C9481
:104AE0001D17D5018D909D905D01B1E18B16B7E248
:104AF0009B0610F00C941D17DA018D919D91AD016C
:104B0000853F914010F00C941D17DB018D919D9114
:104B1000BD018131974210F00C941D17AA89BB8901
:104B20008D919D91BB8BAA8B97FF02C00C941D1792
:104B3000B3E0E635FB0769F62131E7E23E0710F006
:104B40000C941D1780918B0390918C0385369105F1
:104B500010F00C941D178091C9059091CA05813DF4
:104B6000974010F00C941D178091CB059091CC05C7
:104B7000813D974010F00C941D178091CD059091C8
:104B8000CE05813D974010F00C941D17F7FE02C032
:104B90000C941D1740917506F0902A034130E9F5F9
:104BA000E2E2F3E099E0E92ED6016D917C91E69E78
:104BB000C001E79E900D1124B3010E94DA2C605EC3
:104BC0007F4FD6016D937D936D01F1100EC0608112
:104BD0007181E69EC001E79E900D1124B3010E94F1
:104BE000DA2C605E7F4F718360833296B6E5CB1618
:104BF000B3E0DB06C9F6F11010C06091200370919C
:104C0000210359E0569FC001579F900D1124B30115
:104C10000E94DA2C605E7F4F2CC0E1E0FE122DC0B6
:104C200041112BC0E2E2F3E085E0F82E6081718152
:104C300060527109F69EC001F79E900D112469E043
:104C400070E00E94DA2C6193719353E0EA32F50729
:104C500069F760912003709121036052710955E05A
:104C6000569FC001579F900D112469E070E00E948B
:104C7000DA2C709321036093200340932A03B90137
:104C800083EA92E00E94CC0D90938803809387037F
:104C9000B80186E892E00E94CC0D90938A0380933D
:104CA000890300E010E0AE85BF856D917C91C8015D
:104CB0008E5E9D4F0E94CC0DEE85FF858193919372
:104CC000FF87EE87D2016D917C91C80182569E4F7D
:104CD0000E94CC0DF201819391932F01035E1F4F2F
:104CE0000437110501F70C9400178091C80588233B
:104CF00011F40C9464186091CE0666956250809110
:104D0000CF06869528EC45ED51E18D500E94381074
:104D10006091CE06669561508091CF06869528EC0D
:104D200044EC51E188500E9438101091CA0214FFDF
:104D30000CC080912501811102C084E201C0815024
:104D40008093250181E08093C70515FF0DC08091F8
:104D50002501843219F41092250103C08F5F8093DE
:104D6000250181E08093C70512FF0FC0E091C605C1
:104D7000EE2359F0E150E093C605F0E0EB59F94F0E
:104D8000838D0E9411288093250113FF0FC0E091AD
:104D9000C605E73058F4EF5FE093C605F0E0EB5945
:104DA000F94F838D0E94112880932501E091C6055B
:104DB000F0E0EB59F94FA0912501B0E0A95CBE4F9E
:104DC0008C91838F4091CE0646956091CF06669573
:104DD00064508DEE96E00E94BA0C00E010E08091E5
:104DE000C605801304C080916406811122C0F801B9
:104DF000EB59F94F838D811109C00115110531F46B
:104E0000E0912501F0E0E95CFE4F80810E943C0DBD
:104E1000682F8DEE96E00E9412150F5F1F4F08302D
:104E20001105E9F68091CA0280FFE6CB87E00C9479
:104E3000361880E2EBCF80E896E00E94D927BC01CB
:104E40008DEE96E00E9419150C94241DB6018DEE8E
:104E500096E00E941915F60101900020E9F73197BC
:104E6000AF014C195D0901E010E09E01235F3F4F47
:104E70006F2D80918B060E94A80FBE016F5F7F4F40
:104E80008DEE96E00E9419150C94DB1D60E171E037
:104E90008DEE96E00E9419150C94921E60916903A4
:104EA0008DEE96E00E94121509E010E09E012F5F42
:104EB0003F4F41E060919C0680919B060E94A80FA5
:104EC0008093AB058091BC05882331F08091640606
:104ED000882311F060E202C060916A038DEE96E0D3
:104EE0000E9412150CE010E09E012F5F3F4F41E041
:104EF0006091A2068091A1060E94A80F8093AE0542
:104F00008091BD05882331F080916406882311F0DB
:104F100060E202C060916B038DEE96E00E94121574
:104F20000FE010E09E012F5F3F4F41E06091A80627
:104F30008091A7060E94A80F8093B1058091BE05BD
:104F4000882331F080916406882311F060E202C06A
:104F500060916C038DEE96E00E9412152BC8B5018E
:104F60008DEE96E00E94191561E176E08DEE96E0F7
:104F70000E941915109212076CCA8D2D0E94950F70
:104F8000F9CF60E071E08DEE96E00E941915CBCA72
:104F900082E001C083E00E94950FC5CA10928D0384
:104FA00010928E0310928F03109290030E940A0FAA
:104FB00008CBCF92DF92EF92FF920F931F93CF9384
:104FC000DF938C017C0181EEC82E85E0D82EC0E0F5
:104FD000D0E0EC2FD8010D900020E9F71197A01B2D
:104FE000B10BCA17DB0770F4CD31D10551F0F701D1
:104FF00081917F010E943C0DF60181936F01219602
:10500000E8CFEDE1F0E0EF51FA4F108281EE95E04C
:10501000DF91CF911F910F91FF90EF90DF90CF9094
:105020000895982F80EE890F8B3568F48FED890FE6
:10503000803448F047E351E0FA018E2F841B219120
:105040002913FBCF089581E0089580E791E09093C4
:10505000EE068093ED0680910D07882321F08DEEFA
:1050600096E00C94170D0895FF920F931F93CF9322
:10507000DF931092F0061092EF0680E791E0909394
:10508000EE068093ED0686E0F82EF092F10610927F
:10509000F2061092F4061092F3061092F6061092A1
:1050A000F5060E94940ADC01CB01805B9C43AF4F64
:1050B000BF4F8093F7069093F806A093F906B0933C
:1050C000FA06C1E0C093FB06D2E0D093FC06C09381
:1050D000FD061092FF061092000710920107109231
:1050E000020710920307109204078EE180930507D0
:1050F00080E180930607109207071092080710922C
:10510000FE061092090710920A0710920B07C0932F
:105110000C0710920D07C0930E0710920F07109204
:10512000100713E010931107109212078AE791E01D
:105130009093EE068093ED0607E00093140710921B
:10514000CE021092CD0288EE93E0A0E0B0E0809312
:10515000CF029093D002A093D102B093D20280E606
:1051600091E09093CC028093CB0287ED92E09093F4
:10517000C1028093C00281E490E09093C7028093C3
:10518000C6021092C5021092C4021092C30210927D
:10519000C2021092400610924106109242061092EE
:1051A000430610924406109245061092460610924D
:1051B0004706109248061092490610924A0610922D
:1051C0004B0610924C0610924D0610924E0610920D
:1051D0004F0682EE94E090933306809332069093CC
:1051E000350680933406909337068093360680ED1B
:1051F00097E0909339068093380610923B06109200
:105200003A0610923D0610923C0610923F0610920C
:105210003E06D093CD068DE08093CE068CE1809340
:10522000CF0684EC99E09093D3068093D206C09386
:10523000650684E195E090936706809366068CEDA1
:1052400095E0909369068093680688E097E09093D4
:105250006B0680936A068AEC98E090936D068093C3
:105260006C061092720689E18093730685E696E0DB
:105270000E94A30D10927406109275061092770684
:1052800010927606C0937806C093790684E08093E6
:105290007A0680937B0610927C0610927D0610920F
:1052A0007E06C0937F0699E09093C206D093C30612
:1052B00098E09093C40695E09093C5061092C606B8
:1052C000C093C7068093C806F092C9060093CA0629
:1052D0001093CB06E0E8F6E089E08E0F11928E1372
:1052E000FDCF1092950691E0909396061092970646
:1052F000909398061092990690939A068091CF0603
:105300005FEF580F50939B0690939C0680939D06E9
:1053100090939E0680939F069093A0065093A106BB
:105320002091CE063EEF320F3093A2068093A30663
:105330003093A4068093A5063093A6061092A70684
:105340003093A8061092A9063093AA061092AB06D5
:105350003093AC06109291062150209392068093D0
:105360008B0610928C061092890610928A06482F9E
:1053700046956DEF640F6093930630939406445006
:1053800040938F062093900650938D0620938E06AF
:10539000869586958093AD062093AE061092CC0636
:1053A0009093D0069093D1061092D40684E980930E
:1053B000D5069093D6061092D8061092D706109272
:1053C000D90683E08093DA06EFEDF6E087E08E0FF2
:1053D00091938E13FDCF1092E8061092E70687E1B5
:1053E0009CEF9093DC068093DB069093DE0680931F
:1053F000DD0684E68093E9068093EA068093EB0657
:105400008093EC061092A3021092A4021092A502BF
:105410001092A6028AE08093A7021092A80210922E
:10542000AA021092A9021092BF0210928602109254
:105430008702109288021092890280938A02109249
:105440008B0210928D0210928C021092A202109286
:1054500012021092130210921402109215028093FD
:10546000160210921702109219021092180210924E
:105470002E0210922F0210923002109231021092DE
:10548000320280933302109234021092360210924C
:10549000350210924B0210924C0210924D02109263
:1054A0004E0210924F0280935002109251021092BD
:1054B00053021092520210926802109269021092E6
:1054C0006A0210926B0210926C0280936D0210922D
:1054D0006E021092700210926F021092850210926A
:1054E0009E0110929F011092A0011092A101809341
:1054F000A2011092A3011092A5011092A401109292
:10550000BA011092BB011092BC011092BD01109221
:10551000BE018093BF011092C0011092C20110928F
:10552000C1011092D7011092D8011092D9011092A6
:10553000DA011092DB018093DC011092DD01109200
:10554000DF011092DE011092F4011092F501109229
:10555000F6011092F7011092F8018093F901109270
:10556000FA011092FC011092FB0110921102DF91DE
:10557000CF911F910F91FF9008950F931F93CF9399
:105580008C01C62F61E176E08DEE96E00E94191540
:10559000C8010E94D927BC018DEE96E00E94191522
:1055A0008C2FCF911F910F910C94950F2F923F92BA
:1055B0004F925F926F927F928F929F92AF92BF9223
:1055C000CF92DF92EF92FF920F931F93CF93DF93CF
:1055D000CDB7DEB72F970FB6F894DEBF0FBECDBFA5
:1055E0007C013B01242E8AE0E0E8F1E0DE01119627
:1055F00001900D928A95E1F785E0EAE8F1E0DE019D
:105600001B9601900D928A95E1F7F7FE0AC0882754
:1056100099278E199F092DE2DB012C9333243394B3
:1056200002C0C701312C2B85322F2F5F8031B7E2AA
:105630009B071CF080519742F7CF3B872C85322F78
:105640002F5F883EE3E09E071CF0885E9340F7CF13
:105650003C872D85322F2F5F843691051CF08456B0
:105660009109F8CF3D872E85322F2F5F8A30910523
:1056700014F00A97F9CF3E8781508F878E01055F1E
:105680001F4F412C512C80E0222D30E045E050E0AE
:105690006A01C21AD30A46E050E05A01A21AB30ABC
:1056A0004C145D04E1F42220D1F0332029F0F1E024
:1056B0003F120BC0F7FE09C04301830C911C80E32D
:1056C0000E943C0DD4018C9333944301830C911CB4
:1056D0008EE20E943C0DF401808333940BC0811153
:1056E00009C0D8019C9197FF05C02220E9F0A414BD
:1056F000B504D1F4F301E30DF11DD8018C91A2E0C2
:10570000B0E0AC0FBD1FA80FB11D87FDBA958C91FD
:1057100090917806992329F090ED980F9A3008F42B
:10572000865A8083339481E0BFEF4B1A5B0A0F5F88
:105730001F4FE5E04E16510409F0B2CF311007C0FB
:1057400080E30E943C0DD3018C9333243394F30106
:10575000E30DF11D1082832D2F960FB6F894DEBF56
:105760000FBECDBFDF91CF911F910F91FF90EF90B2
:10577000DF90CF90BF90AF909F908F907F906F9071
:105780005F904F903F902F9008956F927F928F92ED
:105790009F92AF92BF92CF92DF92EF92FF920F93C0
:1057A0001F93CF93DF931F92CDB7DEB7982E862E2F
:1057B000CA01390168010E94520D5C01E98240E092
:1057C00061E176E0C3010E94D62AA1E1B6E00D9026
:1057D0000020E9F71197CD0181519640D8010D9035
:1057E0000020E9F71197A01BB10BF50101900020F3
:1057F000E9F73197EA19FB09A80FF980AF0DFA2EE6
:10580000FE0E03E110E09E012F5F3F4F4F2D682DEC
:10581000892D0E94A80F80911207882321F0809182
:10582000640681111EC0C5010E94D927BC018DEEFE
:1058300096E00E9419156981C6010E94BD2A109246
:1058400012070F90DF91CF911F910F91FF90EF9072
:10585000DF90CF90BF90AF909F908F907F906F9090
:1058600008958F2D0E94950FEACF8F929F92AF924D
:10587000BF92CF92DF92EF92FF920F931F93CF933D
:10588000DF9300D0CDB7DEB78983D62ECA01CA8296
:105890008501422F61E176E00E94D62AE1E1F6E03F
:1058A00001900020E9F73197E151F640D4010D90C5
:1058B0000020E9F71197CD0188199909D7010D90BA
:1058C0000020E9F71197AE19BF09E80FCE2ECA0ED6
:1058D00089819E012E5F3F4F4C2D6D2D0E94A80F98
:1058E000182F80911207882321F08091640681117E
:1058F0000DC0C4010E94D927BC018DEE96E00E9424
:1059000019156A81C7010E94BD2A03C08C2D0E940F
:10591000950F10921207812F0F900F90DF91CF916A
:105920001F910F91FF90EF90DF90CF90BF90AF90BD
:105930009F908F900895FC0105900020E9F78095D5
:1059400090958E0F9F1F0895F999FECF92BD81BD4E
:10595000F89A992780B50895262FF999FECF1FBA96
:1059600092BD81BD20BD0FB6F894FA9AF99A0FBE88
:1059700001960895991B79E004C0991F961708F0C5
:10598000961B881F7A95C9F780950895AA1BBB1BA3
:1059900051E107C0AA1FBB1FA617B70710F0A61B2F
:1059A000B70B881F991F5A95A9F780959095BC0150
:1059B000CD01089597FB072E16F4009407D077FDCC
:1059C00009D00E94C62C07FC05D03EF49095819525
:1059D0009F4F0895709561957F4F0895A1E21A2E0B
:1059E000AA1BBB1BFD010DC0AA1FBB1FEE1FFF1F83
:1059F000A217B307E407F50720F0A21BB30BE40BD3
:105A0000F50B661F771F881F991F1A9469F7609519
:105A10007095809590959B01AC01BD01CF010895D3
:105A2000A29FB001B39FC001A39F700D811D1124DF
:105A3000911DB29F700D811D1124911D08950E942A
:105A4000102DB7FF0895821B930B0895B7FF0C9498
:105A5000342D0E94342D821B930B0895EE0FFF1FEF
:105A60000590F491E02D09940E94102DA59F900DB2
:105A7000B49F900DA49F800D911D1124089581E085
:105A800090E0F8940C94542DFB01DC018D91019071
:105A900080190110D9F3990B0895FB01DC010190E5
:105AA0000D920020E1F7089519E0C8E4D9E004C0A0
:105AB000FE010E942E2D2196C934D107C9F7F89412
:025AC000FFCF16
:105AC20014170094007E00617E009C9C9C9C7E00CA
:105AD2008388888900F0D8330F0101010101010197
