:100000000C94280B0C94500B0C94500B0C94500B2C
:100010000C94500B0C94500B0C94500B0C94500BF4
:100020000C94500B0C94500B0C94500B0C94500BE4
:100030000C94500B0C94500B0C94500B0C94500BD4
:100040000C94E41B0C94500B0C94721C0C942E1CFE
:100050000C94500B0C94500B0C94500B0C94500BB4
:100060000C94500B0C94500B750EAE0EB60EBD0ECC
:10007000C40ECB0ED80EDF0EE60EF40ED311DB113C
:10008000E211F711FE11071223123A124D206C20D3
:100090007120812090209820A220A720AC20B2209F
:1000A00000000000240027002A000102040810209C
:1000B00040800102040810200102040810200404FA
:1000C0000404040404040202020202020303030300
:1000D00003032EB101500DF8800FF8800F28A954AA
:1000E000A921A54A8324558694A80AA5220D2A553C
:1000F000144940B0E4038862109402558454A9085E
:10010000A54AA90C823002E33085B230E00398683A
:1001100010300C02124150275D1287299885011F6B
:10012000C0BF88A212A49543004720154141A02AD0
:1001300094532CE05B8F2A9468A887444CA1088CC8
:1001400083800FF8800FF800A5A534AE290048047D
:1001500055A154FC6D1F50008052559508A158FCC4
:10016000094B211428410D02A141A03008540481FB
:100170002AA8A1148D89980EB9D8F249B209540A57
:1001800031084805012AA1545485523425623AE6C3
:10019000629B130C0214A11C50299FF2011F0054F2
:1001A00088EE0142AA24440431882020419522C5CA
:1001B000920F000241800A2A554441800A0A5402E3
:1001C0009484964333760208A85454454328444304
:1001D0001E0461C7B7461010A0100CA46A004107A6
:1001E00020EC801008A5684CC4740CF800A7120419
:1001F00094206E8388200005951409A824480825BA
:1002000041092AC5540C28006D1F8004830045282D
:10021000077C3D5251F5C211D2F77D1FF0E3D5F7AF
:100220007D3FFE7DDFF77D3CFE7DDFF7E3DFF77D81
:100230001FF02A8240601008010A11920211948076
:10024000A808220422A23111D33117033E405005E1
:100250000121821429A1204105118837204135143C
:10026000A0A2202584200548E998CB014A3280C30A
:100270002012E3880A55A894A008A5242408140491
:10028000018A2000150490822011D271B75A0F40C4
:100290002BA82A03A84110C1711001548220825A50
:1002A000BFF55B816A2B0481AA6808C5686CFD569E
:1002B000A5190941D88A542B014A2B04E129A2A887
:1002C000810EA0222888A84269A9EB79B4800FB8D2
:1002D000D60EF8800F28A854A908A54A49215552DE
:1002E0002A422108A8A84A0490414029086051A543
:1002F000288B2A892C2081221680A64301500D8547
:10030000800F40A2418034083A816A21CA98015482
:100310008D406A46426103F730E0033EE0033E2031
:100320002040802A4A9450112282341A13B1F403D7
:100330000E6000A80800010DA0220840846200247D
:1003400062E9071C8076500141453D0854A1A01B7D
:100350001482E8865680D8FA010F91284411082E9D
:10036000281810866000420C80D20F78A850A90887
:10037000114A151254AA24A20161342742C9077CEC
:10038000802209E2800F708A41B086A8168054103E
:10039000500A62124140A1EC033E000806010AAA7D
:1003A00054143681D06E0AFA74CAC562ACA400DD5A
:1003B000C0CC0EFA79AFC480A74A0B8A524A828415
:1003C00052500594962AA5A1188D8958FA011F80CC
:1003D00008370101556AAA42291A033EE0033E800C
:1003E0000806018A20A2A2301480E67EC0500100D7
:1003F00095922AA1A198F9011FF0D71541011FC0BC
:10040000408F4121554A41404A28555450A9A88857
:1004100052520F40A1EA0308401DA8824A49955054
:10042000528214928212F429908505588601FD8B20
:10043000283A600783804A044463D0077119062470
:10044000050050495DA02A8511A0B00D1452098500
:100450001D3802554049A5E321844204C44122A627
:1004600003D0D66F350AA114C742E3886A9C245290
:1004700019DE349538A0247405820095502A8A84A8
:100480005212D404908200D0381D5104E4521096C8
:10049000E175039DE52088C04C08852050F54B147C
:1004A0000029A4484521895088C63E804A251D5A06
:1004B0003B086A28489A1055139112540350823809
:1004C000029A40209556A0DABAD716010AA952120C
:1004D0001A44FD8882EA390451AC9028038A2D9D84
:1004E0000500A0CEC20E74602BEC50288E705C15F7
:1004F0006019B67EEB510802AA1140E1065A3F602E
:100500000806018A208EC0C40FF8E26FFD070805B7
:10051000A0F51F80547E819250AAA442A198A330D6
:10052000086BA8155330864221E0DB0900544AAA23
:1005300084066104267ED307308525DFF7F78CC259
:10054000020CF8800FF8800F0000CBA00A2A2500CB
:10055000424900408840110844A0820050284503C9
:100560000204000482000294503A505025900A0080
:10057000A0AD4D30085074B020A1A4042924052555
:1005800088010481AA508E9320A040B5B5295C4310
:1005900001400D826B5448824A10D4531FC41DD4AD
:1005A000326C1DA06BB449110075108236D7CAB0E9
:1005B000752E3008059202940B50823E05B3F09AD6
:1005C00086E0FAAF6384840651045E7FEBB77EABAE
:1005D000041985E66AFD2082520F905A015222408A
:1005E00048C12CBEFE11A80128E910E4651641E9B6
:1005F0005986370D802A155507802202823EC80B86
:10060000A80C026604A8280CFA1D08822FA7A44A89
:100610002815001D109004A0002505290B40050198
:10062000AA08504195542390121ACAD1880A6A3AEE
:1006300008CDA53E2000750702924210901A83A0B3
:100640000F320053700D414821025AFB1A05A513C1
:10065000291441066087827607AEB715D25148103B
:100660002808020441DC2D2082185410406AFD0045
:10067000A002002A255542AFE9E8832805B3A0006F
:10068000CBF0BAE3201D5AB38C13291D2B20C8AF21
:1006900021A0AF3F28210401A06B5158062AAA01CE
:1006A000451010BCFEEB51900E15400A5528808A6B
:1006B0000648422950017AFDAD26640D1402A5B208
:1006C0008A354080540D8E680196616B5D03D01DA4
:1006D000564801C52CA08887A00F52002DD50A547A
:1006E0005B014A2B047D905E7FEB077D1050125416
:1006F0000FAAEAE11A095EFFCEA208EA0BEC26284F
:10070000D73D0C04495045B8269B1104119828592F
:10071000588065D85A04A8026C927A0FFA2006D045
:1007200052542900004A4A95C2208C008554290958
:10073000A54AEADA62253780B64D1C902A84208AC1
:10074000C02608BA5C2BC380A7100445B40394F2FA
:10075000818A8A184015E34140B5FEAF92421107E5
:100760006D0A5E7D80110C0214C5A00A2A25414243
:100770002901104A056AE1077CC007340500404999
:10078000A952188A997FAD414E00054054AA54D40D
:10079000202555EFA00A6A0A1560C053C9044A42D1
:1007A0008340610428244845050A0AA89AA803142E
:1007B000126AA50C009507149A3F0028060109AAA1
:1007C00044514145484AC83E28525809FD802A9460
:1007D000AE41611F520000B4F16F24082841254842
:1007E0000A2A0A50425189AA64552A3A2008BB11A4
:1007F000281505B9D0FE374EB51582402801500A9C
:100800005135411046601CA650161660C04FE102DB
:10081000AEE10E1EE105DEE10B7E21C156A41404FB
:10082000549A3E802900005A899482A01B3A309441
:10083000282952484A48374045780544AFBE598276
:100840000014D44A104A280850D5431F5278042A6D
:100850002A5050514890D23050127A05B710F0010A
:100860004030085064812AA8D720B4093B400501D4
:1008700014001331280A30E0A9026D0205CBD04ADA
:10088000025B414507A9008A02155482A48E81D4D7
:1008900025DC7C80530000B40683E01AA1925251FB
:1008A0000DA1282A1A20292441450545AA08F381CB
:1008B00068E337631080824AA19E4F2108540DB22D
:1008C00022159414A0A0A29020952BA07AF50134B3
:1008D00089F35000542905012905005B4145104664
:1008E000601CA6E0D507D8142CE01AEEE0115EE0FB
:1008F0001DBEE0175250950DA0828042D3DF30C557
:10090000452041A51E202924254A682B40ADC7500B
:1009100052158D0A2900005AFF014C651628DD008A
:1009200029A104494145810AEA2900ADC12050416D
:100930004995C020804A454101B43F152840290906
:10094000524802118820A4240C441C507C07AA247D
:10095000A842240145040921DD8040288920A048BF
:10096000740D5A9708454A4DCC0A810A1208230093
:1009700081420A40C7012A444A40455042A8909209
:1009800008A1944008A542B1F5020EE138C8A04A7A
:10099000895AD9077C4000A44A4D4528D008629A5C
:1009A000B91FF001B487428380613D8762343E7C89
:1009B000C007703D5EF023BD43C0077C8051A20696
:1009C000958A8C304098F1011F1052A95209125596
:1009D000D71FF0014A3108480601D26E0AA5684CBB
:1009E000C4800FF87D3AC53BE9A6800FF8800FF868
:1009F0008001BA050AA952124A951454AA28622104
:100A0000E8D329178BB112039C60D9077D1095613B
:100A1000405299F43509FA74CCC5628A82EB66F9C2
:100A200012540441950445581046E05114E0B513A2
:100A30002D0615A10030E2233EA2A73CE0033EE0D4
:100A4000BB3FE003BEFB033EE003BEFB033EE0BB57
:100A50003FE0033EE0BB3FE003BEFB033EE003BEDE
:100A6000FB033EE0BB3F60500501A120A0444528A8
:100A7000150A02A9D252493514A33111D3391703EB
:100A80008C683AA8080580111FF111C892A852522B
:100A9000AA84B204A834EB233E025810A921160000
:100AA0006A3EE26BBEF86BBEE623BEE6B33EE26B87
:100AB000BEF8233E42021000550AAA809212A430CA
:100AC0008854057DD007616B91008030088B3FE82A
:100AD0005B3FA86ABEF55BBFFB5BBFF583BEEF5A09
:100AE0003FE83BBEF52B3FE8BBA5B53A2811B268FD
:100AF0008123485428451382680CE2560F30154173
:100B0000203008840085084981084A008240810A13
:100B10004A0811425288500851A2E9988B01078572
:100B20002A1541502981127A07A1002908A008A599
:100B30000000EA328412558059D00094DA800A8A83
:100B40005038012A40BB3F6009064125CC6210A9FC
:100B50000AA51D0C582A50805212A490042210415C
:100B6000180120E280E2050024A5400509118282D7
:100B70008422C4E66F4522142935312B0495802048
:100B8000021028A000B4F5033E0055048100A00423
:100B90001E0015241084283D00250541100AD1F0BF
:100BA00089940450A4928B011F20A8804221A44064
:100BB000102420822040A90228AA762114A3091219
:100BC000D574C8C5FAA74A0520554A73400911D4FF
:100BD00020A100002A29554243916A3A9C2125818F
:100BE000A1802214148602D05A26308C50A90810F5
:100BF0004AA51842912AD432A884684EC1088AC3F3
:100C0000C44F042011A028114404712B26E248523D
:100C1000119248D150CFA2E240503425C205044180
:100C20000A9761A8A6D06FB56A010B1A67A8C59488
:100C3000C2A1306EB95C29D1500405918B80AE2DD4
:100C4000802940054A42884244884004810A04A120
:100C5000409408C554CA8756A4223008440481A28F
:100C6000290E02AA509A34008942218A4010C23AC1
:100C700010812A0810880041002045522AA60060F1
:100C8000EBB70E4528D720E85A145E03500200A89F
:100C9000B67EEB0730058A4449814070012A820004
:100CA00001AA207844A2102952259001A86A408404
:100CB000D020A10AA01502A69511B6268956DA847D
:100CC0007DA4044A28A95084140450BA816AC70537
:100CD000D43050258130880F21082955433D047CAC
:100CE00000AB0802814120042840480A5450BA0150
:100CF0004AA1084404242822845085988EB918F00B
:100D000001822A080811A000091528210840400D79
:100D100005A18020088DC6444CC75C0EF8EB058AFF
:100D20009092428454102284140A8940F4FAAF9FAE
:100D300002A57D808208C429420D4544D19088D700
:100D40007FFDD78240042505024211120215428818
:100D500002BCFEEB234801120A52424E1105890BD8
:100D6000B82621D700E9FA039C4A10500AE2804FC6
:100D7000D7020C38A0542928A54A2BED03340B0BBD
:100D800030EDA9420D02A1411CF0E95A80011FD0AB
:100D900004D7018502828810A10882004210044411
:100DA000891029FD80A31804248850A806508D8836
:100DB000AA0D419022429142E907A88A201000859D
:100DC000802048A820414240095010204245491542
:100DD0000248A2100A0284500015A2B918F001823C
:100DE0000A0800428A543503020A0811925088907A
:100DF00022D050A08AF0141052A24A94502ED6FF4E
:100E0000B50A0C022154014282A28212141141102F
:100E10000A404440522242085088E978FDD7110424
:100E200084885080840894105420840621A2208C49
:100E300086444CC7EB0F20020489A24081101102A6
:100E40001588421104C2682041902045AA540241ED
:100E500010544AA084920A4548410045680240ED7A
:100E6000FA0024580E08370021154408090501A28C
:100E70002000000060F15FFFF512C8005450A988FF
:100E8000388220A60AF1E203064610077C40531878
:100E900006529340320842311A033EE00384601048
:100EA000A0A04A4515544AAA8452000034EF033EDC
:100EB00000A800804A4015405282140691AA2000E2
:100EC000A090842A842400208CC65045950202B24A
:100ED000301A42219A1261F8033EE0033EE0033EDD
:100EE000E0033EE0039C000080A854A9208000207D
:100EF000551231803008423FF4500401C1C15611EF
:100F0000040283400850809010A8A0844004250566
:100F100041100AD19888E9988B011F20A88280107F
:100F2000010A90508110420894501241802008A27A
:100F30003111D3319703920A50AAD4948652C053E8
:100F4000259002ACB22014039E0254AAB4A4865287
:100F5000C0A700C02C50194A01BF2C4180EA1604DA
:100F60003E43B7100C0296A11C80541681502AA84B
:100F70008880EE0FF80046D108AAA052522534E32B
:100F8000039A681020040810810A158840200C423A
:100F9000142A101204988C01DFFA08811244A01060
:100FA0004513880842140A4410040AB1F4038E025F
:100FB00045AAA4405C830815418010551020108577
:100FC000902884EB0F78154120300884100508091B
:100FD000810A4A9D40E91A42311A13311D7331E0EA
:100FE0000304551010224A81124252501092101AD6
:100FF000840882001528280412211D7339E0038C0F
:10100000922AA1545441A58A22E3033EE0038E565E
:101010001030901A441118F0C59FF5C55FFC011FF0
:10102000F0011F704AA9520319441118F0051FF06E
:10103000655FF6011FF0011F1024840611A9500EF0
:10104000C2802FFEE22FFBB20FF8800FF880A2843F
:101050003088154668C0177FF1977DD9077CC00797
:101060007CC0077CC0077CC0077CC0077CC0077CB5
:10107000C00708150050A9A9921A8A899FF8899F6C
:10108000F889A32A9143A1F88BBFF88BBFF87F3F63
:1010900071033EE0033EE0033EE0033EE0033EE03A
:1010A000033EE0033EE0033EE0033EE0033E205803
:1010B00041A5CA201418528042949420AA24845036
:1010C000251504A1409484208614A1A4632E067CD7
:1010D00080A00A024240815252A0908A1011548589
:1010E000280C82505020820A508894D23197033EB7
:1010F000E0033EE0033EE0033EE0033EE0033EE06B
:10110000033E000906018A2040180424423FF409E6
:101110008000884A950A020000B67EE8871A01041A
:10112000009A084513B77EE89F6628D450EB87FEE7
:10113000A93471282452EB87FEE9244AEB87FEE9A3
:10114000B47EFD9F7EEBB7FEE9B77EEB9F7EEBB7EB
:10115000FE6901A8BFD63FFDD36FFD563FB526C837
:101160004504F5DFFAA75FFFAD1F81A75DF9AD1F4D
:101170004404509C7EE8B75EC0077CC007007365DE
:101180007474696E67732073617665640079617742
:10119000206C65667420746F20676F206261636BDA
:1011A000007761726E2061742000626174746572F0
:1011B000792000796177206C65667420746F2065F2
:1011C00078697400726F6C6C2F7069746368207436
:1011D0006F2063656E746572206F736400666F6E56
:1011E00074207570646174656400796177206C6F38
:1011F0006E67206C65667420746F20657869740072
:10120000796177206C65667420666F72206E6578F0
:1012100074206974656D0075736520706974636806
:101220002F726F6C6C20746F206D6F766500796122
:1012300077206C65667420746F206578697400751A
:1012400073652070697463682F726F6C6C20746FA3
:1012500020736574206E616D650068706C61792023
:101260000066736861726B006C6172676520006E66
:101270006F726D616C00776174746D657465722056
:1012800020006F72646572206D656E750073657401
:10129000206974656D73206D656E750063616C6C9B
:1012A0007369676E2020200074696D6572202020AC
:1012B000202020007468726F74746C6520202000F8
:1012C000616D70732020202020202000766F6C74C8
:1012D00061676520202020006D616820202020208B
:1012E000202020006573632072706D202020200074
:1012F00065736320616D7073202020006573632027
:1013000074656D7020202000727373692020202086
:1013100020202000776174746D65746572206D61A2
:10132000783A2000766F6C7461676520636F727223
:10133000203A20006D696E20766F6C7461676520BD
:10134000203A2000766F6C742E207761726E696E81
:10135000673A2000626174742E202520616C6172EE
:101360006D3A2000626174742E207761726E696E2E
:10137000673A200073656C656374206261747465FC
:101380007279200062617474657279206D656E7582
:101390000070726F70732069636F6E203A20006571
:1013A00073632069636F6E2020203A200077617498
:1013B000742069636F6E20203A20006D6168206997
:1013C000636F6E2020203A20007273736920696376
:1013D0006F6E20203A200074696D65722069636F1A
:1013E0006E203A20006B697373206C6F676F20204A
:1013F0003A200069636F6E732020202020203A205D
:101400000069636F6E73206D656E7500727373692A
:10141000206D696E2070706D3A20007273736920C0
:101420006D61782070706D3A20007273736920636B
:1014300068616E6E656C3A20007273736920636F29
:101440006E666967206D656E75006F666620202088
:10145000006F6E202020200068696464656E007350
:101460007461746973746963732020203A006F6635
:1014700066006F6E20002D3320002D3220002D31AC
:101480002000302020002B3120002B3220002B3375
:10149000200063726F737368616972202020203AA4
:1014A000006F666620202020006F6E202020202004
:1014B00000626565726D75670077617474206D6593
:1014C0007465722020203A00676F67676C65202082
:1014D00020202020203A0069636F6E7300666F6ED3
:1014E000742073697A65202020203A0074656D703D
:1014F0002E20756E69742020203A00727373690083
:10150000726564756365206974656D73203A006463
:101510006973706C6179206D656E75006D617820FE
:1015200076747820706F7765723A20007674782030
:10153000636F6E666967206D656E75006261636BCF
:1015400000726573746F72652064656661756C7492
:10155000732000726573746F7265206C6173742000
:101560007361766500636F6E6669726D202020205E
:10157000202020202020007265736574206D656E28
:10158000750000000000250028002B000000000866
:10159000000201000003040700000000000000003A
:1015A00072657365740073617665007674780062A5
:1015B000617474657279006368616E6765206F722B
:1015C00064657200736574206974656D730063658A
:1015D0006E746572206F7364006D6F766520697438
:1015E000656D730063616C6C7369676E0064697329
:1015F000706C61790075706461746520666F6E74DB
:10160000006D61696E206D656E7500737465656C43
:1016100065206F736420636F6E6669672076322E73
:101620003400646F206E6F7420706F776572206F66
:10163000666621212100666F6E742077696C6C20CC
:101640006265207570646174656400007F3170317B
:1016500011241FBECFEFD8E0DEBFCDBF11E0A0E068
:10166000B1E0ECE6F6E602C005900D92AC3EB107A3
:10167000D9F727E0ACEEB1E001C01D92A135B20769
:10168000E1F71BE0C7E2DBE004C02197FE010E9406
:10169000FF32C632D107C9F70E94DF230C942933E9
:1016A0000C9400008EBD0DB407FEFDCF8EB50895DD
:1016B00060E070E080E89FE30895982F2091010298
:1016C000822F807124FF05C08FEF91110DC0860F0E
:1016D000089525FF0EC0292F30E070E06150710998
:1016E000261737071CF481E0890F0895261737075E
:1016F00009F0892F0895CF92DF92EF92FF920F9316
:101700001F93CF93DF93FC017B018A01E9012091B4
:10171000010222FF14C080819181AC01461B570B4E
:101720004017510724F05183408331E009C031E074
:10173000081719070CF030E01183008301C030E076
:1017400020FF16C0C080D180C70166EF7FEF0E94E6
:10175000C9326C0D7D1D6017710724F071836083A1
:1017600031E006C00C151D050CF431E01183008337
:1017700023FF12C080819181AC014E0D5F1DC41703
:10178000D50724F05183408331E006C08C179D07B4
:101790000CF431E0D183C08321FF16C00081118198
:1017A000C7016AE070E00E94C932600F711FC6175E
:1017B000D70724F07183608331E006C00C171D0742
:1017C0000CF431E0D183C083832FDF91CF911F913F
:1017D0000F91FF90EF90DF90CF900895982F80EEBB
:1017E000890F8B3568F48FED890F803448F047E618
:1017F00051E0FA018E2F841B21912913FBCF08950C
:1018000081E00895CF930E948B14C82F8091020528
:10181000C81771F1C0930205C13011F48FE001C007
:101820008DE080930305809160058823D1F080E4EA
:1018300095E00E94C81D811114C0C13021F440916F
:101840005105406405C0C23061F4409151054F7BA1
:101850004093510560E080E495E00E94BF1CC09376
:101860004F056091030580910405CF910C94A2145B
:10187000CF910895CF9361E089E00E943D1B60E025
:1018800089E00E94F11A64E670E080E090E00E9436
:101890009E1B61E089E00E94F11A64E670E080E03E
:1018A00090E00E949E1B61E08AE00E943D1B61E087
:1018B0008AE00E94F11A61E08BE00E943D1B60E02B
:1018C0008CE00E943D1B61E08DE00E943D1B60E0CA
:1018D00082E00E943D1B80E58CBD81E08DBD8DB511
:1018E0008EB564E670E080E090E00E949E1B60E0B0
:1018F0008AE00E94F11A80E00E94520B82E00E946E
:10190000520B64E670E080E090E00E949E1BC0E015
:1019100080910305C81748F480E18C0F0E94520B98
:1019200081E00E94520BCF5FF3CF80E00E94520B08
:1019300080910205813011F488E401C088E00E94A2
:10194000520B61E08AE00E94F11A64E670E080E0E8
:1019500090E00E949E1B64E670E080E090E00E94B0
:101960009E1BC091040561E0809144050E943D1BCF
:101970002091440530E0F901E655FF4F9491909392
:101980004505F901E254FF4FE491F0E0EE0FFF1F2F
:10199000EE57FA4EA591B491B0934705A093460532
:1019A000EC91E92BEC9389E594E0909349058093C1
:1019B00048058CB58F7D8CBD80916005811113C069
:1019C00081E08093600560EA80E495E00E94141D48
:1019D0008823C9F360EA80E495E00E94141D86FD27
:1019E000F9CF109261056DE08C2F0E94A214C82FD0
:1019F0006CEE80E495E00E94141D482F4F7E6CE64B
:101A000080E495E00E94BF1CC0935E0568EE73E021
:101A100080E090E00E949E1B0E94020C60910305F2
:101A2000809104050E94A21480916005882361F0D2
:101A300080E495E00E94C81D811106C04DE26CE073
:101A400080E495E00E94BF1C80916005882399F096
:101A500082E08093500580E495E00E94C81D8111CA
:101A60000AC04091510548604093510560E080E410
:101A700095E00E94BF1C64E670E080E090E00E9468
:101A80009E1B6091B3048091B204CF910C942915F0
:101A900080916005882391F080E495E00E94C81D44
:101AA00081110CC064E880E495E00E94141D482F69
:101AB000446064E080E495E00E94BF1C8091600572
:101AC000811101C0FFCF80E495E00E94C81D811103
:101AD00007C064E880E495E00E94141D82FFEECF09
:101AE0000895CF938091010283FF23C08091630406
:101AF000813091F038F08230E1F40E94480D8BE3A0
:101B000090E25AC0809162048F5F809362048230B9
:101B100080F00E9498220BC0809162048F5F8093B6
:101B20006204823030F08AE994E00E94E91E10924B
:101B30006204C091630463E08C2F0E945D0B80936C
:101B40006304C81310926204809104058695C5EF62
:101B5000C80F28EC47E755E162E085500E94D61691
:101B600020916304211107C080916204813019F42F
:101B700045E655E102C043E555E163E08C2F0E9444
:101B8000D61620916304213039F4809162048130AB
:101B900019F445E655E102C041E455E164E08C2FBB
:101BA0000E94D616209163044CE355E165E08C2F2A
:101BB0000E94D61681E79DE0CF910895AF92BF9223
:101BC000CF92EF920F931F93CF93DF9300D0CDB7B7
:101BD000DEB780910102982F9C7061F190916104B1
:101BE000992319F09130E9F025C080911C0590915E
:101BF0001D059A83898320E03DE740E050E062E3E1
:101C000070E0CE0101960E947B0B29813A813093CE
:101C10001D0520931C059091FF01892B8093FF01E6
:101C200009C083FF07C0109261040E94480D8BE336
:101C300090E230C062E0809161040E945D0B80936D
:101C4000610490910405892F869516EF180F28ECF2
:101C50004CE255E162E087500E94D61620911C05A7
:101C600030911D0588EDA82E81E0B82EC09061044A
:101C7000E12C00E04CE155E163E0812F0E94482314
:101C8000209161044CE355E164E0812F0E94D61657
:101C90008EED9DE00F900F90DF91CF911F910F91EE
:101CA000EF90CF90BF90AF9008958F929F92AF9298
:101CB000BF92CF92EF92FF920F93CF93DF938091D9
:101CC0000102282F28708C7009F497C0C091A904D4
:101CD000E09160048E2F90E08A30910508F08DC06D
:101CE000FC01EC5CFF4F0C94FF3244E050E060E0FC
:101CF00070E089EA94E00E9429239091FF01892BEA
:101D00008093FF018091A9048C1709F476C0C43038
:101D100091F4C3E3D1E0A7EFB4E0EDE3F1E08AE0B2
:101D20008E0F9C91919399919D938E13FACF80E0A1
:101D30000E94211762C0C330D1F78430C1F7CDE3D0
:101D4000D1E0A7EFB4E0E3E3F1E08AE08E0F9C91ED
:101D5000919399919D938E13FACFE9CF222309F4A1
:101D60004CC00E94480D87EF9FE036C141E050E033
:101D700060E070E08AEA94E02FC041E050E060E06B
:101D800070E08DEA94E028C02223B9F10E94480D4A
:101D900082ED90E121C141E050E060E070E081E03F
:101DA00095E00E9429238823C9F01092EC0116C007
:101DB00042E050E060E070E085E095E00DC048E072
:101DC00050E060E070E08EE095E006C042E050E058
:101DD00060E070E084EB94E00E9429239091FF0181
:101DE000892B8093FF0109C0222339F010926004EF
:101DF0000E94480D8BE390E2EFC06AE0809160049E
:101E00000E945D0B80936004D0910405D695C6EFC7
:101E1000CD0F28EC4FE055E162E08AEF8D0F0E9474
:101E2000D6162091600440E055E163E08C2F0E94BB
:101E3000D6168091A904843051F48BED91E00E9474
:101E40006A1EBC0180E495E00E94CA2320C081EE96
:101E500091E00E946A1EBC0180E495E00E94CA23C2
:101E60004091A90450E04F5F5F4F6BEE862E61E01A
:101E7000962EA12CB12CC12C7AEEE72E71E0F72E14
:101E800001E020E063E088E08D0F0E94E8182091D7
:101E900060044BEF54E164E08C2F0E94D616209131
:101EA00060044CEE54E165E08C2F0E94D6168091C0
:101EB000AA0490E0880F991F8C569E4F0E946A1EBC
:101EC000BC0180E495E00E94CA23209160044DED9E
:101ED00054E166E08C2F0E94D616E091AD04F0E04C
:101EE000EE0FFF1FE057FE4F808191810E94371E49
:101EF000BC0180E495E00E94CA232091600447ED74
:101F000054E167E08C2F0E94D6162091600448ECC3
:101F100054E168E08C2F0E94D616E0910105F0E0B4
:101F2000EE0FFF1FE457FE4F808191810E94371E04
:101F3000BC0180E495E00E94CA232091600449EB33
:101F400054E169E08C2F0E94D6168091050528E0A7
:101F5000829FC00111248F559B4E0E94371EBC01E9
:101F600080E495E00E94CA232091600442E954E194
:101F70006AE08C2F0E94D61680910E0524E0829F85
:101F8000C001112482599B4E0E94371EBC0180E47F
:101F900095E00E94CA23209160044FE554E16BE074
:101FA0008C2F0E94D6168091B40427E0829FC00136
:101FB0001124865B9B4E0E94371EBC0180E495E095
:101FC0000E94CA23209160044CE355E16CE08C2F01
:101FD0000E94D61685E59EE0DF91CF910F91FF908C
:101FE000EF90CF90BF90AF909F908F9008958F9279
:101FF0009F92AF92BF92CF92DF92EF92FF920F9398
:102000001F93CF93DF9300D0CDB7DEB7909101023D
:10201000892F8C7009F441C080915F048130D9F020
:1020200028F0823041F1833079F137C080910F057B
:10203000082E000C990B9A83898323E030E04FEF40
:102040005FEF61E070E0CE0101960E947B0B998109
:1020500090930F050AC028EE33E047E15CEF6AE099
:1020600070E080E195E00E947B0B9091FF01892B4D
:102070008093FF0112C028EE33E047E15CEF6AE095
:1020800070E082E195E0EFCF93FF07C010925F040C
:102090000E94480D85E59EE076C064E080915F0473
:1020A0000E945D0B80935F0410910405169526EF46
:1020B000D22ED10E28EC49E354E162E088EF810F83
:1020C0000E94D61620915F044AE254E163E08D2D10
:1020D0000E94D61680910F0587FF0AC085EE91E019
:1020E0000E946A1EBC0180E495E00E94CA231FC0C2
:1020F00081EE91E00E946A1EBC0180E495E00E949E
:10210000CA2340910F05042E000C550B4F5F5F4F03
:102110009BEE892E91E0992EA12CB12CC12C74013B
:1021200001E020E063E088E0810F0E94E818209140
:1021300010053091110528513C4F8BEEA82E81E0FF
:10214000B82EC0905F04E12C00E04BE154E164E064
:102150008D2D0E944823209112053091130528519E
:102160003C4FC0905F044CE054E165E08D2D0E942F
:10217000482320915F044CE355E166E08D2D0E94D9
:10218000D61687EF9FE00F900F90DF91CF911F91B0
:102190000F91FF90EF90DF90CF90BF90AF909F9006
:1021A0008F900895EF92FF920F931F93CF93DF9339
:1021B00080910102982F9C7009F47EC0C0915E044A
:1021C000C830B0F4C130C0F48091AE0480931B05D8
:1021D00041E050E060E070E08EEA94E00E94292344
:1021E0009091FF01892B8093FF010E94862364C098
:1021F000C83009F458C060C08C2F90E0FC01ED5E3F
:10220000FA4FD08141E050E060E070E0CF010E94E1
:1022100029239091FF01892B8093FF01C23009F59A
:1022200080911505D81709F447C0D091AE04D1307C
:1022300009F042C01091140510921405C0931B05BB
:102240008093AE04D09315050E9486238091AE043E
:102250008093150510931405D093AE04D0931B05FD
:102260002BC0C13049F580911405D81729F1C091D0
:10227000AE04C13009F5D09115051092150592E014
:1022800090931B058093AE04C09314050E9486238F
:102290008091AE0480931405D0931505C093AE04CD
:1022A000C0931B0509C083FF07C010925E040E9403
:1022B000480D85E59EE058C069E080915E040E946B
:1022C0005D0B80935E0490910405892F8695D8EF6D
:1022D000D80F28EC41E054E162E085500E94D61608
:1022E00020915E0443EF53E163E08D2F0E94D616E8
:1022F0008091AE0424E0829FC0011124855D9E4F31
:102300000E946A1EBC0180E495E00E94CA2301E994
:1023100013E184E1E82E85E0F82EC3E0CF5F209141
:102320005E04A8016C2F8D2F0E94D616F7018191B3
:102330007F01F4E08F9FC0011124855D9E4F0E94B4
:102340006A1EBC0180E495E00E94CA23025F1F4F11
:10235000CA3021F720915E044CE355E16BE08D2FEC
:102360000E94D61682ED90E1DF91CF911F910F91DF
:10237000FF90EF900895AF92BF92CF92EF920F939C
:102380001F93CF93DF9300D0CDB7DEB710915D04DC
:10239000412F50E04830510508F07FC0FA01E25C5F
:1023A000FF4F0C94FF328091010283FF76C081E0E1
:1023B0008093EF0172C041E050E060E070E08AE994
:1023C00094E022C044E650E060E070E088EA94E0E7
:1023D0000E9429239091FF01982B9093FF0188235D
:1023E00009F45BC08AE994E00E94C01E56C041E037
:1023F00050E060E070E089E095E006C04AEF50E010
:102400006AE570E08AE095E00E94292316C0809179
:102410000C0590910D059A8389832AE030E046EF00
:102420005FEF61E070E0CE0101960E947B0B298195
:102430003A8130930D0520930C059091FF01892B73
:102440008093FF012AC080910705909108059A8327
:10245000898320E335E748EE53E068EE73E0CE0170
:1024600001960E947B0B89819A8190930805809345
:10247000070513C08091010283FF0FC00E94480D21
:1024800010925D0440910705509108056EEF8DEFA5
:102490000E944E198BE390E296C068E0812F0E9463
:1024A0005D0B80935D0480910405869516EF180FEF
:1024B00028EC44E853E162E086500E94D616209151
:1024C0005D0444E753E163E0812F0E94D61620911A
:1024D0005D0444E653E164E0812F0E94D6168091AA
:1024E0009A0424E0829FC0011124855D9E4F0E94C2
:1024F0006A1EBC0180E495E00E94CA232091A804D2
:1025000030E08FECA82E81E0B82EC0905D04EE2460
:10251000E39400E044E553E165E0812F0E94482305
:1025200020915D0444E453E166E0812F0E94D616B9
:102530008091090524E0829FC0011124855D9E4F92
:102540000E946A1EBC0180E495E00E94CA2320918B
:102550000A0530E093EDA92E91E0B92EC0905D04FC
:1025600001E044E353E167E0812F0E94482320917A
:102570000C0530910D05C0905D0444E253E168E024
:10258000812F0E94482380910705909108056AE0F9
:1025900070E00E94B5329B0149EDA42E41E0B42EBB
:1025A000C0905D0400E044E153E169E0812F0E94A6
:1025B000482320915D044CE355E16AE0812F0E949D
:1025C000D6168BEB91E10F900F90DF91CF911F9179
:1025D0000F91EF90CF90BF90AF900895EF92FF9240
:1025E0000F931F93CF93DF9382E0809364058091D4
:1025F000010282FD06C083FF14C080915C048A3012
:1026000080F480915C0490E041E050E060E070E094
:1026100089509B4F0E9429239091FF01892B809321
:10262000FF018091010283FF11C080915C048A3018
:1026300069F410925C040E94480D83E08093640565
:1026400080E00E9421178BE390E250C06BE0809104
:102650005C040E945D0B80935C04C0910405C695E8
:102660008CE992E10E94963296958795DC2FD81BD3
:1026700028EC4DE852E161E089EF8C0F0E94D616FC
:102680000CE912E137EFE32E34E0F32EC1E0CF5F27
:1026900020915C04A8016C2F8D2F0E94D61689EE24
:1026A00091E00E946A1EBC0180E495E00E94CA236A
:1026B000F70121917F01F4E02F9FC0011124855D76
:1026C0009E4F0E946A1EBC0180E495E00E94CA23CE
:1026D000045F1F4FCB30D9F620915C044CE355E1E9
:1026E0006CE08D2F0E94D6168EEE92E1DF91CF9195
:1026F0001F910F91FF90EF900895AF92BF92CF92EC
:10270000DF92EF92FF920F931F93CF93DF93CDB79A
:10271000DEB72A970FB6F894DEBF0FBECDBF82E0BA
:1027200080936405E7EFF4E080E08E010F5F1F4FB8
:102730009191D801A90FB11D8C938F5F8A30C1F799
:1027400090915B04809101029A3061F483FF0AC08A
:102750000E94480D10925B0483E0809364058BE334
:1027600090E2C8C083FF0CC020915A04211108C018
:1027700021E020935A0490932A0197EC90935B04F4
:1027800082FF0DC090915A04992349F010925A0487
:1027900090912A0190935B0497EC90932A0184FF17
:1027A00028C080915A04882321F180912A01282F82
:1027B00030E0F801E20FF31FE081F0E0E950FB4F59
:1027C00090819923B1F0DE01A20FB31FAC91B0E06C
:1027D000A950BB4F9C919F5F9C9390819150908397
:1027E000815080932A0180E00E94211781E080932C
:1027F000FF018091010285FF29C080915A0488233E
:1028000029F180912A01282F30E0F801E20FF31F0F
:10281000E081F0E0E950FB4F90819A30B8F4DE019E
:10282000A20FB31F1296AC91B0E0A950BB4F9C9180
:1028300091509C9390819F5F90838F5F80932A013A
:1028400080E00E94211781E08093FF016BE080917E
:102850005B040E945D0B80935B04F0900405F6948A
:102860008CE992E10E94963296958795EF2CE81AB2
:1028700028EC42E852E161E08BEF8F0D0E94D61602
:10288000680132E0F32EBB24B3944CE0A42E909167
:102890002A018C2D801B891302C0B092650580919E
:1028A0000505882349F0F6018081833029F42091C1
:1028B0005B0446E752E109C0F6014081A49EA001F5
:1028C000112444565D4E20915B046F2D8E2D0E9485
:1028D000D616F394FFEFCF1ADF0A8CE0F812D7CFA9
:1028E00020915B044CE355E16CE08E2D0E94D616DE
:1028F0008DE793E12A960FB6F894DEBF0FBECDBFE9
:10290000DF91CF911F910F91FF90EF90DF90CF90CB
:10291000BF90AF90089580916005811102C080E062
:10292000089580E495E00E94C81D8111F8CF60EA07
:1029300080E495E00E94141D81FD02C0817008951D
:1029400082E00895DF92EF92FF920F931F93CF934F
:10295000DF93C82FD62FD0906005D11002C0D12CA4
:102960006FC080E495E00E94C81D8111F8CF0E94DD
:102970008B14811102C080914F05CC2311F0D1112D
:1029800005C0813069F490E1DEE00EC0823021F0B4
:10299000813029F790E101C09DE0CF3104F705C0F7
:1029A0008230E9F69DE0DCE0CAE1492F50E02D2FAE
:1029B0000D2E000C330B421753078CF2C7FDC25E7D
:1029C000D7FDD90F2EE12C1B9D1B622F617086E075
:1029D000689FB0011124092F017089E0089F8001D0
:1029E0001124E22EE694F92EF6940115110519F042
:1029F00002511109F3946093540540915205405ED1
:102A0000460F62E080E495E00E94BF1CE09256050C
:102A1000C09358050093550540915305405F400F02
:102A200063E080E495E00E94BF1CF0925705D093CC
:102A3000590510925A0510925B0581E080935E055E
:102A40008D2DDF91CF911F910F91FF90EF90DF902F
:102A500008950F931F93CF93DF9310916005111189
:102A600002C010E038C0C62FD82F80E495E00E9445
:102A7000C81D8111F6CF40E24D0F90915405292FCA
:102A8000092E000C330B240F311D47FD3A952034DD
:102A9000310538F700E10C0F20915505022E000C8E
:102AA000330B200F311D07FD3A9520323105C8F652
:102AB000D0935205C0935305490F62E080E495E03E
:102AC0000E94BF1C80915505402F480F63E080E4B1
:102AD00095E00E94BF1C812FDF91CF911F910F9134
:102AE000089580916005811102C081E0089580E41D
:102AF00095E00E94C81D8111F8CF60EA80E495E05E
:102B00000E94141D8295817008952F923F924F92DA
:102B10005F926F927F928F929F92AF92BF92CF926D
:102B2000EF920F93CF93DF934C01EB013A015901E0
:102B30008A5F91098D3D954008F450C08881998144
:102B4000AA81BB81892B8A2B8B2B81F40E94D81BF5
:102B5000688379838A839B83C11047C087ED881679
:102B600086E098060CF042C0E02E40C00E94D81BC0
:102B7000288139814A815B811B012C01221A330A89
:102B8000440A550AF30180819181A0E0B0E08215EA
:102B90009305A405B50548F5F5018081918101965D
:102BA00091838083F301208131812B3F310548F0EF
:102BB000892B39F0285E334031832083F50111825F
:102BC0001082F7ED8F16F6E09F060CF4E02E0E94BF
:102BD000D81B688379838A839B8308C018821982F3
:102BE0001A821B82F50111821082E12C8E2DDF9159
:102BF000CF910F91EF90CF90BF90AF909F908F901B
:102C00007F906F905F904F903F902F90089590E04D
:102C100020916405821B910970E08617970711F4D3
:102C20008EE301C080E20E94211E682F80E495E0BF
:102C30000C94C323CF93DF93D82FC0E0CD1751F06E
:102C400080E20E94211E682F80E495E00E94C32349
:102C5000CF5FF4CFDF91CF9108950F931F93CF9360
:102C60008C01C62F64E674E080E495E00E94CA23DC
:102C7000C8010E946A1EBC0180E495E00E94CA233C
:102C80008C2FCF911F910F910C941A16AF92BF9277
:102C9000CF92DF92EF92FF920F931F93CF93DF9328
:102CA0001F92CDB7DEB78983E62E59018981C42EE4
:102CB000D12CF090040520910105B601680F711D1B
:102CC0008F2D90E0821B910986179707DCF4F41A88
:102CD000F21AF50180816F2D681B4E2D80E495E07E
:102CE0000E949F1DF50180810E941A16F501108235
:102CF000033111050CF04DC0F801EC51FB4F81E0A0
:102D0000808347C069814E2D80E495E00E949F1D1D
:102D1000209104053091010503311105CCF40656CC
:102D20001B4FF801E65BFF4F10824981822F90E034
:102D3000831B9109B601640F711D6817790719F19A
:102D40004981F601E40FF11D0197E817F907D9F061
:102D50008981C80ED11C822F90E0831B9109C8166F
:102D6000D90679F46981F5018081681B4E2D80E4D4
:102D700095E00E949F1DF50180810E941A16F501C1
:102D80001082F12C06C0F801E65BFF4F81E08083E2
:102D9000DFCF8F2D0F90DF91CF911F910F91FF907B
:102DA000EF90DF90CF90BF90AF900895BF92CF92F9
:102DB000DF92EF92FF920F931F93CF93DF9300D098
:102DC000CDB7DEB7B82EE62E6A01C6012A830E946F
:102DD0009632F82E198203E110E09E012F5F3F4FDB
:102DE000482F6E2D8B2D0E944616809165055A81C5
:102DF000882359F080919904882339F0583C08F4CD
:102E0000F3948F2D0E941A160EC0583C20F4652FA3
:102E10008E2D0E940716C6010E94371EBC0180E459
:102E200095E00E94CA23109265050F900F90DF91E4
:102E3000CF911F910F91FF90EF90DF90CF90BF90B7
:102E400008952091A904882369F1243058F587E179
:102E50009CEF9093860480938504909388048093DC
:102E6000870490938A048093890490938C048093C0
:102E70008B0490938E0480938D04909390048093A0
:102E80008F04909392048093910490939404809380
:102E90009304909396048093950490939804809360
:102EA00097040895A7EFB4E0E5E8F4E08C912430AE
:102EB00038F436E9839FC0011124885E934004C032
:102EC00090E0919581959109918380831196329636
:102ED00084E0E939F80751F708958EBD0DB407FE77
:102EE000FDCF8EB50895E0918204F0918304909116
:102EF000840420E030E0815068F0220F331F4491B9
:102F0000492351E009F450E0990F11F4319691E012
:102F1000252BF1CF90938404F0938304E0938204F3
:102F2000C90108952F923F924F925F926F927F92C4
:102F30008F929F92AF92BF92CF92DF92EF92FF92C9
:102F40000F931F93CF93DF93CDB7DEB72F970FB6B5
:102F5000F894DEBF0FBECDBF7C013B01242E8AE07A
:102F6000E8E9F1E0DE01119601900D928A95E1F712
:102F700085E0E2EAF1E0DE011B9601900D928A9570
:102F8000E1F7F7FE0AC0882799278E199F092DE2DD
:102F9000DB012C933324339402C0C701312C2B85E1
:102FA000322F2F5F8031B7E29B071CF08051974290
:102FB000F7CF3B872C85322F2F5F883EE3E09E07BB
:102FC0001CF0885E9340F7CF3C872D85322F2F5F12
:102FD000843691051CF084569109F8CF3D872E85E3
:102FE000322F2F5F8A30910514F00A97F9CF3E8770
:102FF00081508F878E01055F1F4F412C512C80E03F
:10300000222D30E045E050E06A01C21AD30A46E0C2
:1030100050E05A01A21AB30A4C145D04E1F42220D4
:10302000D1F0332029F0F1E03F120BC0F7FE09C0C8
:103030004301830C911C80E30E94211ED4018C93D8
:1030400033944301830C911C8EE20E94211EF401F3
:10305000808333940BC0811109C0D8019C9197FFE4
:1030600005C02220E9F0A414B504D1F4F301E30D66
:10307000F11DD8018C91A2E0B0E0AC0FBD1FA80FEC
:10308000B11D87FDBA958C919091AD04992329F0DB
:1030900090ED980F9A3008F4865A8083339481E03B
:1030A000BFEF4B1A5B0A0F5F1F4FE5E04E1651044E
:1030B00009F0B2CF311007C080E30E94211ED30176
:1030C0008C9333243394F301E30DF11D1082832D8F
:1030D0002F960FB6F894DEBF0FBECDBFDF91CF9114
:1030E0001F910F91FF90EF90DF90CF90BF90AF9026
:1030F0009F908F907F906F905F904F903F902F9018
:1031000008958F929F92AF92BF92CF92DF92EF92EB
:10311000FF920F931F93CF93DF931F92CDB7DEB72C
:10312000E82EB62E4A01C901402FA98264E674E058
:103130000E949217A4E6B4E00D900020E9F71197E1
:10314000CD0184569440D6010D900020E9F71197E7
:10315000AC19BD09F40101900020E9F73197E81995
:10316000F909A80FF980AF0DFA2EFE0E03E110E069
:103170009E012F5F3F4F4F2D6B2D8E2D0E944616C7
:1031800080916505882321F08091990481111CC0EC
:10319000C4010E946A1EBC0180E495E00E94CA231B
:1031A0006981C6010E942D16109265050F90DF916E
:1031B000CF911F910F91FF90EF90DF90CF90BF9034
:1031C000AF909F908F9008958F2D0E941A16ECCF8C
:1031D0008F929F92AF92BF92CF92DF92EF92FF9227
:1031E0000F931F93CF93DF9300D0CDB7DEB78983C2
:1031F000D62ECA01CA828501422F64E674E00E947D
:103200009217E4E6F4E001900020E9F73197E456E4
:10321000F440D4010D900020E9F71197CD018819F1
:103220009909D7010D900020E9F71197AE19BF0950
:10323000E80FCE2ECA0E89819E012E5F3F4F4C2D86
:103240006D2D0E944616182F80916505882321F068
:103250008091990481110DC0C4010E946A1EBC01B5
:1032600080E495E00E94CA236A81C7010E942D165E
:1032700003C08C2D0E941A1610926505812F0F90A5
:103280000F90DF91CF911F910F91FF90EF90DF9002
:10329000CF90BF90AF909F908F9008951F93CF9342
:1032A000DF931F92CDB7DEB7162F642F90E05983BE
:1032B0000E94A21E5981652F812F90E00F90DF910F
:1032C000CF911F910C94A21E0F931F93CF93DF9366
:1032D0004091A3045091A40464E083E00E944E193D
:1032E00060919A0485E090E00E94A21E6091A7047C
:1032F00086E090E00E94A21E6091A90487E090E021
:103300000E94A21EC0E0D0E0FE01E656FB4F4181C4
:1033100052816C2F675F8C2F885F0E944E19229616
:10332000C830D10589F76091A80480E190E00E943F
:10333000A21E6091AA0481E190E00E94A21E609109
:10334000AD0482E190E00E94A21E6091AE0483E190
:1033500090E00E94A21E6091AF0484E190E00E9480
:10336000A21E6091B00485E190E00E94A21E6091CF
:10337000B10486E190E00E94A21E6091B20487E150
:1033800090E00E94A21E6091B30488E190E00E9448
:10339000A21EC9E1D0E0FE01E252FB4F6081CE01E6
:1033A0000E94A21E2196C232D105A9F7FE01ED5658
:1033B000FB4F6081CE010E94A21E2196CB32D10527
:1033C000A9F78E0106561B4FF80137976081CE0191
:1033D0000E94A21EF80136976081CE0101960E94DC
:1033E000A21E2296CF34D10561F7609101058FE4CA
:1033F00090E00E94A21E6091050580E590E00E9489
:10340000A21E6091060581E590E00E94A21E4091F7
:1034100007055091080563E582E50E944E19609109
:10342000090584E590E00E94A21E60910A0585E5E9
:1034300090E00E94A21E6091140586E590E00E9433
:10344000A21E60910B0587E590E00E94A21E60918C
:103450000C0588E590E00E94A21E60910E0589E5AA
:1034600090E00E94A21E60910F058AE590E00E9404
:10347000A21E6091E2048BE590E00E94A21E609182
:10348000E3048CE590E00E94A21E609100058DE5AA
:1034900090E00E94A21ECEE5D0E0FE01E656FB4F72
:1034A000658DCE010E94A21E2196C436D105A9F7D2
:1034B00040911C0550911D0565E684E60E944E1959
:1034C0006091B40486E690E00E94A21E409110052F
:1034D0005091110568E687E60E944E194091120549
:1034E000509113056AE689E60E944E19CBE6D0E0BA
:1034F000FE01E656FB4F618DCE010E94A21E219671
:10350000CF36D105A9F740910705509108056EEF18
:103510008DEFDF91CF911F910F910C944E191F9356
:10352000CF93DF931F92CDB7DEB790E069830E94FF
:10353000BE1E182F6981862F90E00E94BE1E212F8B
:1035400030E0A901582BCA010F90DF91CF911F9154
:103550000895FC01828D238D8F5F948D992369F0EE
:10356000682F70E0408D042E000C550B6417750712
:1035700024F02F5F81E0878F80E0958D992369F09B
:10358000622F70E0418D042E000C550B64177507F7
:1035900024F081E0878F20E080E0F894828F238FF1
:1035A00030E0418D042E000C550B61E024173507E7
:1035B0000CF060E090E0408D042E000C550B21E0F3
:1035C000841795070CF020E02623268F7894089521
:1035D0008EBD00000DB407FEFDCF8EB508950E948C
:1035E000143390E0FC01E457FA4E3491FC01E655A7
:1035F000FF4F2491FC01E254FF4FE491EE2309F4C4
:103600003BC0332339F1333091F038F43130A9F035
:10361000323001F584B58F7D12C0373091F03830EB
:10362000A1F03430B9F4809180008F7D03C0809187
:1036300080008F77809380000DC084B58F7784BD24
:1036400009C08091B0008F7703C08091B0008F7D5A
:103650008093B000F0E0EE0FFF1FEE57FA4EA591F9
:10366000B4918FB7F894EC91611103C020952E238B
:1036700001C02E2B2C938FBF0895CF93DF9390E042
:10368000FC01E655FF4F2491FC01E254FF4F849169
:10369000882361F190E0880F991FFC01E056FF4FED
:1036A000C591D491FC01EE57FA4EA591B4916111E8
:1036B00009C09FB7F8948881209582238883EC9174
:1036C0002E230BC0623061F49FB7F8943881822FAB
:1036D000809583238883EC912E2B2C939FBF06C06B
:1036E0008FB7F894E8812E2B28838FBFDF91CF917D
:1036F00008953FB7F8948091DD059091DE05A09183
:10370000DF05B091E00526B5A89B05C02F3F19F055
:103710000196A11DB11D3FBFBA2FA92F982F882751
:10372000820F911DA11DB11DBC01CD0142E0660FAC
:10373000771F881F991F4A95D1F708958F929F92FE
:10374000AF92BF92CF92DF92EF92FF926B017C011A
:103750000E94791B4B015C01C114D104E104F10406
:10376000F1F00E94791BDC01CB0188199909AA09A3
:10377000BB09883E9340A105B10570F321E0C21A50
:10378000D108E108F10888EE880E83E0981EA11C9C
:10379000B11CC114D104E104F10419F7DDCFFF908D
:1037A000EF90DF90CF90BF90AF909F908F90089553
:1037B0002FB7F8946091D9057091DA058091DB05F7
:1037C0009091DC052FBF08951F920F920FB60F92B4
:1037D00011242F933F938F939F93AF93BF93809127
:1037E000D9059091DA05A091DB05B091DC05309107
:1037F000D80523E0230F2D3720F40196A11DB11D1C
:1038000005C026E8230F0296A11DB11D2093D805FF
:103810008093D9059093DA05A093DB05B093DC057E
:103820008091DD059091DE05A091DF05B091E00566
:103830000196A11DB11D8093DD059093DE05A09337
:10384000DF05B093E005BF91AF919F918F913F91BC
:103850002F910F900FBE0F901F9018951F920F92EF
:103860000FB60F9211242F933F934F935F938F9333
:103870009F93EF93FF932091D4053091D5058091CC
:10388000D2059091D30582179307D1F0C901019613
:103890004091D0055091D105FA01E20FF31F20812C
:1038A0004091D6055091D7058417950710F080E018
:1038B00090E09093D5058093D4052093C60005C071
:1038C0008091C1008F7D8093C100FF91EF919F9106
:1038D0008F915F914F913F912F910F900FBE0F905D
:1038E0001F9018951F920F920FB60F9211242F93CD
:1038F0003F934F935F936F937F938F939F93EF9338
:10390000FF938091C0008C719091C6004091AB05EF
:103910005091AC059A012F5F3F4F6091A9057091BE
:10392000AA05FB01E40FF51F90834091AF0550916C
:10393000B0052417350710F020E030E04091AD05C8
:103940005091AE0524173507C1F03093AC05209394
:10395000AB059091CF05892B8093CF05FF91EF9117
:103960009F918F917F916F915F914F913F912F9197
:103970000F900FBE0F901F9018958160EACF0F93A4
:103980001F93CF93DF93EC01062F142F8AA1882376
:1039900039F0F8946FEFCE010E94E91C1AA27894D6
:1039A000EE81FF8120819D81909592239083802FCD
:1039B0000E94E81A812F0E94E81AEE81FF8180811F
:1039C0009D81982B9083812FDF91CF911F910F9133
:1039D00008951F93CF93DF93EC01162F8AA18111D5
:1039E0000EC0F89464E8CE010E94141D482F416077
:1039F00064E0CE010E94BF1C81E08AA37894EE812E
:103A0000FF8120819D81909592239083812F0E9438
:103A1000E81AEE81FF8180819D81982B9083812F10
:103A2000DF91CF911F9108951F93CF93DF93EC0106
:103A3000162F8AA1882339F0F8946FEFCE010E94E7
:103A4000E91C1AA27894EE81FF8120819D819095D6
:103A500092239083812F0E94E81A8FEF0E94E81A28
:103A6000EE81FF8120819D81922B9083DF91CF9108
:103A70001F910895EF92FF920F931F93CF93DF93BF
:103A80001F92CDB7DEB77C01562FFC01868D8111C8
:103A90000BC0C7010E94A91A81E090E0F70193834F
:103AA000828380E090E043C0F701878D81110AC0D6
:103AB00082A1882339F06F3F29F0652FC7010E944A
:103AC000E91C30C0F7018789238D022E000C330BCF
:103AD000280F311D87FD3A958EE1829F8001839FDB
:103AE000100D11242689828D082E000C990B820F4F
:103AF000911D27FD9A95080F191F412F65E0C701F9
:103B000059830E94BF1C402F66E0C7010E94BF1C62
:103B1000F701178E59815F3F81F64FEF67E0C701CC
:103B20000E94BF1CC7010E94A91A81E090E00F907B
:103B3000DF91CF911F910F91FF90EF900895FC01BD
:103B400080A1882321F167FF1FC0808D680F47FF88
:103B500002C0818D480F67FD0EC0808D68175CF430
:103B600047FD09C0818D481734F4F894628F438F64
:103B700081E0868F05C0F894628F438F168E81E0B6
:103B8000878F7894868D089547FFE7CFE2CF089519
:103B90000F931F93CF93DF93EC0189A1811103C091
:103BA00088A1811123C00E94791B0A851B852C8561
:103BB0003D85061717072807390710F081E017C061
:103BC00088A1882399F060EACE010E94141D882301
:103BD000A9F386FDF3CF6CEECE010E94141D482F91
:103BE0004F7E6CE6CE010E94BF1C19A280E0DF91DF
:103BF000CF911F910F910895CF93DF93FC0120A1E6
:103C00002223E1F0EC010E94C81D811117C0F89435
:103C100042E060E0CE010E94BF1C81E089A30E94C7
:103C2000791BDC01CB0182599F4FAF4FBF4F8A8771
:103C30009B87AC87BD87198A1E8E7894DF91CF91C0
:103C400008959091AD04992389F09FE9980F9A31D6
:103C500010F48052089590E5980F923010F48E5F22
:103C6000089590ED980F9A3008F4865A0895CF92EF
:103C7000DF92EF92FF920F931F93CF93DF937C011C
:103C80000E9496326C0101EB15E0C0E0D0E0EC2F11
:103C9000CC15DD0571F0CD31D10559F0F701EC0FF0
:103CA000FD1F84910E94211EF80181938F012196AE
:103CB000EECFEE3120F4F0E0EF54FA4F108281EBBA
:103CC00095E0DF91CF911F910F91FF90EF90DF90E2
:103CD000CF900895CF92DF92EF92FF920F931F93B0
:103CE000CF93DF938C017C0181EBC82E85E0D82E29
:103CF000C0E0D0E0EC2FD8010D900020E9F711973B
:103D0000A01BB10BCA17DB0770F4CD31D10551F000
:103D1000F70181917F010E94211EF60181936F01BD
:103D20002196E8CFEDE1F0E0EF54FA4F108281EBFD
:103D300095E0DF91CF911F910F91FF90EF90DF9071
:103D4000CF9008950F931F93CF93DF931F92CDB71A
:103D5000DEB78C0169830E949F326981681741F048
:103D6000C8010F90DF91CF911F910F910C94A73252
:103D70000F90DF91CF911F910F9108950C949F3276
:103D80000F931F93CF93DF93EC018D85FE01E80F16
:103D9000F11DE80FF11D01811281AE859801B0E09F
:103DA0000E94053324E630E040E050E00E94DD321E
:103DB000C801821B930B9A87898783E01695079524
:103DC0008A95E1F71C870B87DF91CF911F910F91A7
:103DD0000895CF93DF93EC01188284E195E09A83F4
:103DE00089838CED95E09C838B8388E097E09E83AC
:103DF0008D838AEC98E098878F831D8689E18E8772
:103E0000CE010E94C01E94E09F8781E0888B1A8AB1
:103E1000198A8B8B8C8B9D8B9E8B1F8A188E93E0BF
:103E2000998F92E09A8FFE01E35AFF4F10823196EC
:103E3000108231961082319680833196808331963C
:103E4000808331961082319610823196108231969D
:103E50001082EB54F109CE0184961192E817F9070C
:103E6000E1F718AA92E099AB1AAA9BAB1CAA9DABEA
:103E7000FE01E659FF4F80814FEF480F4EAB9FABDD
:103E800088AF99AF8AAF9BAF4CAF319720819EEF3F
:103E9000920F9DAF8EAF9FAFB9978083319690837D
:103EA00031961082319690833196108231969083AC
:103EB00031961082319690831CA61DA6382F369518
:103EC0005EEF530F5EA31FA21CA25CEF520F5DA317
:103ED0005DEF530F5EA79FA734503AA721502BA741
:103EE00048A719A6319686958695808331962083BA
:103EF0007E9610823496108281E0319680833396CC
:103F0000108294E9319690833196808331961182A4
:103F10001082329610828FEF319680833596CE01D3
:103F20008F579F4F21E02193E817F907E1F7FE0132
:103F3000E358FF4F10823596118210823C9787E13B
:103F40009CEF918380833296918380833C9684E6B4
:103F500080833196808331968083C957DF4F888371
:103F6000DF91CF91089508952091AB053091AC0574
:103F70008091AD059091AE052817390769F08091C1
:103F8000AD059091AE05E091A905F091AA05E80F65
:103F9000F91F808190E008958FEF9FEF0895CF92F1
:103FA000DF92EF92FF920F931F93CF93DF937C01E9
:103FB0008A01EB016B01C40ED51ECC15DD0551F055
:103FC0006991D701ED91FC910190F081E02DC7013D
:103FD0000995F3CFC801DF91CF911F910F91FF9009
:103FE000EF90DF90CF9008958091C00085FFFCCFC7
:103FF0006093C60081E090E008958091AD059091B6
:10400000AE052091AB053091AC0528173907D1F0EA
:104010009C012F5F3F4F4091A9055091AA05FA01DD
:10402000E80FF91F80814091AF055091B00524172A
:10403000350710F020E030E03093AE052093AD0559
:1040400090E008958FEF9FEF08952FB7F894809137
:10405000AB059091AC054091AD055091AE05841B28
:10406000950B2FBF97FF06C02091AF053091B0058B
:10407000820F931F0895CF938091010283FF77C031
:10408000E091ED018E2F90E08A30910508F06FC02D
:10409000FC01EA5BFF4F0C94FF320E94480D6091D7
:1040A00003056695615080910405869528EC46E3EA
:1040B00056E18A500E94D61660910305669580915C
:1040C0000405869528EC42E256E189500E94D616F6
:1040D00081E08093190112C00E94480D85E59EE0A1
:1040E000C5C00E94480D81E0809300021092FE013D
:1040F0008091B5040E94EE0B809326018BE390E241
:10410000B5C00E94480DC1E0C093FD0181E00E944E
:10411000211710921A011092FC01C093F101EECF09
:104120000E94480D10921A0181E08093F001E6CFC1
:104130000E94480D8091A904843009F495C08DE750
:1041400093E194C00E94480D8BEB91E18FC00E94D7
:10415000480D8EED9DE08AC00E94480D81E080935D
:10416000EE01CCCF0E94480D81E79DE07FC06AE060
:104170008091ED010E945D0B8093ED01609104053B
:104180006695CAEFC60F6B5041E080E495E00E944F
:104190009F1D8BE096E10E94371EBC0180E495E0F4
:1041A0000E94CA2380910405869528EC41E056E1DF
:1041B00062E084500E94D6162091ED0145EF55E152
:1041C00063E08C2F0E94D6162091ED014DEE55E153
:1041D00064E08C2F0E94D6162091ED0144EE55E14B
:1041E00065E08C2F0E94D6162091ED0149ED55E136
:1041F00066E08C2F0E94D6162091ED014EEC55E121
:1042000067E08C2F0E94D6168091A9042091ED01C1
:10421000843019F444EC55E102C047EB55E168E005
:104220008C2F0E94D6162091ED014FEA55E169E0EE
:104230008C2F0E94D6162091ED014BEA55E16AE0E1
:104240008C2F0E94D6162091ED0146EA55E16BE0D5
:104250008C2F0E94D6162091ED0140EA55E16CE0CA
:104260008C2F0E94D6164ACF8EEE92E1CF91089500
:10427000CF92DF92EF92FF920F931F93CF93DF9332
:104280006C017A018B01C0E0D0E0CE15DF0589F02A
:10429000D8016D918D01D601ED91FC910190F081D5
:1042A000E02DC6010995892B11F47E0102C02196EB
:1042B000ECCFC701DF91CF911F910F91FF90EF904D
:1042C000DF90CF9008950F931F93CF93DF9364E017
:1042D00083E00E948F1A9093A4048093A30485E046
:1042E00090E00E94BE1E80939A0486E090E00E94B7
:1042F000BE1E8093A70487E090E00E94BE1E8093BC
:10430000A9040BE914E0C8E061E06C0F8C2F0E9457
:104310008F1AF801819391938F01CE5FC031A1F77D
:1043200080E190E00E94BE1E8093A80481E190E0AD
:104330000E94BE1E8093AA0482E190E00E94BE1EED
:104340008093AD0483E190E00E94BE1E8093AE0492
:1043500084E190E00E94BE1E8093AF0485E190E06E
:104360000E94BE1E8093B00486E190E00E94BE1EB3
:104370008093B10487E190E00E94BE1E8093B20456
:1043800088E190E00E94BE1E8093B304C9E1D0E0B2
:10439000CE010E94BE1EFE01E252FB4F8083219699
:1043A000C232D105A9F7CE010E94BE1EFE01ED5614
:1043B000FB4F80832196CB32D105A9F7CE010E9415
:1043C000BE1E8E0106561B4FF80137978083CE0123
:1043D00001960E94BE1EF801369780832296CF3444
:1043E000D10561F78FE490E00E94BE1E8093010525
:1043F00080E590E00E94BE1E8093050581E590E077
:104400000E94BE1E8093060563E582E50E948F1A16
:10441000909308058093070584E590E00E94BE1EF6
:104420008093090585E590E00E94BE1E80930A05F1
:1044300086E590E00E94BE1E8093140587E590E01B
:104440000E94BE1E80930B0588E590E00E94BE1E70
:1044500090E090930D0580930C0589E590E00E9413
:10446000BE1E80930E058AE590E00E94BE1E8093DA
:104470000F058BE590E00E94BE1E8093E2048CE560
:1044800090E00E94BE1E8093E3048DE590E00E94C0
:10449000BE1E80930005CEE5D0E0CE010E94BE1E78
:1044A000FE01E656FB4F858F2196C436D105A9F74C
:1044B00065E684E60E948F1A90931D0580931C0583
:1044C00086E690E00E94BE1E8093B40468E687E60C
:1044D0000E948F1A90931105809310056AE689E671
:1044E0000E948F1A9093130580931205CBE6D0E0BB
:1044F000CE010E94BE1EFE01E656FB4F818F219623
:10450000CF36D105A9F76CEF8BEF0E948F1A9093ED
:10451000AC048093AB046EEF8DEF0E948F1A9093E2
:10452000080580930705DF91CF911F910F910895A2
:10453000CF93DF931F92CDB7DEB781E090E00E946A
:10454000BE1E853108F07CC0893008F471C08983B3
:104550000E94632189818D30C8F481E08093050534
:104560008093060524EC39E0309308052093070575
:104570001092090594E990930A058093140580939D
:104580000B0510920D0510920C0502C08D3019F428
:1045900010920E0502C08E3091F483E080930F05D7
:1045A00089E0809300058091040586958695809327
:1045B000E2048091030581508093E30402C08F30B0
:1045C000C1F481E08093150580931605809317054B
:1045D000809318058093190580931A058091D20461
:1045E0008F5F8093D2048091D8048F5F8093D8042A
:1045F00002C0833140F410921D0510921C0582E028
:104600008093B40402C0843151F087E19CEF909311
:10461000110580931005909313058093120584E68D
:1046200080931E0580931F058093200580932105AC
:104630000E94641965E181E090E00E94A21E02C020
:104640000E9463218AE994E00F90DF91CF910C944E
:10465000C01E0F931F93CF93DF9300D0CDB7DEB76B
:104660008C019A01DC01EC91F0E0FA83E983AB0163
:1046700061E070E0CE0101960E947B0B9981F80108
:1046800090830F900F90DF91CF911F910F9108951C
:104690007F928F929F92AF92BF92CF92DF92EF92D2
:1046A000FF920F931F93CF93DF9300D0CDB7DEB768
:1046B000F82E762E4A011C2D6501462F682F80E4C6
:1046C00095E029833A830E949F1D612F872D0E94C8
:1046D0000716C4010E94371EAA24A39429813A8197
:1046E000AC01672D81E08F0D0E9481180F900F9013
:1046F000DF91CF911F910F91FF90EF90DF90CF90BE
:10470000BF90AF909F908F907F9008958091AE045E
:1047100090911B059817B1F180931B05813011F41E
:104720003FEF01C031E050911405432F440F440F77
:10473000430F60911505EEEBF4E080E090E0DC01C2
:10474000AC51BB4F2C91222391F0282F863091053C
:10475000A1F0893091F08C3081F08F3071F02550CC
:104760002D3028F4613019F42081230F2083019625
:1047700032968331910519F70895513099F72081C8
:10478000240FF4CF0895DC01ED91FC910190F081AC
:10479000E02D09946115710579F0FB01019000206D
:1047A000E9F73197AF01461B570BDC01ED91FC9106
:1047B0000280F381E02D099480E090E00895CF938A
:1047C000DF93CDB7DEB766970FB6F894DEBF0FBEA6
:1047D000CDBF789484B5826084BD84B5816084BD8A
:1047E00085B5826085BD85B5816085BD80916E008F
:1047F000816080936E0010928100809181008260C0
:1048000080938100809181008160809381008091FC
:1048100080008160809380008091B10084608093EB
:10482000B1008091B00081608093B00080917A00E7
:10483000846080937A0080917A00826080937A000D
:1048400080917A00816080937A0080917A008068FC
:1048500080937A001092C1001FB7F89480910202F1
:10486000811127C0E8ECF0E08491E4EBF0E0949152
:10487000E82FF0E0EE0FFF1FE056FF4FA591B49137
:10488000EC91E92321F461E08AE00E94F11A61E0F1
:104890008AE00E943D1B8CB580618CBD8CB5806424
:1048A0008CBD61E08DE00E943D1B61E08BE00E94C9
:1048B0003D1B809102028F5F809302021FBF8CB567
:1048C0008C7F8CBD8DB581608DBD0E943A0C00E05F
:1048D00010E060E0C8010E94A21E0F5F1F4F01158B
:1048E00024E01207B1F70FEF13E06DEDC8010E944D
:1048F000A21E015011090B3F33E01307B1F70E94CC
:1049000098226091B3048091B2040E9429150E94FC
:1049100071158823E1F30E94480D8091AA048093C9
:10492000030280E00E942117E1EFF1E04BE04E0F1F
:104930004A8B11925A895E13FCCFE4E3F4E083E1E1
:104940008E0F11928E13FDCF1092C10086E08093DE
:10495000C20082E08093C0001092C50080E1809385
:10496000C40088E98093C100CE0101963C012E016C
:1049700098E0490E511C88E695E0E6E3E80FEB8BE2
:104980000E94D81B8091550490915604A091570421
:10499000B0915804892B8A2B8B2B51F40E94D81B81
:1049A0006093550470935604809357049093580471
:1049B0000E94D81B0091510410915204209153047D
:1049C00030915404DC01CB01801B910BA20BB30B83
:1049D000853F9140A105B10580F00E94D81B6093EE
:1049E0005104709352048093530490935404909113
:1049F000990481E08927809399040E94791B009192
:104A00004D0410914E0420914F0430915004DC016C
:104A1000CB01801B910BA20BB30B81319742A105F7
:104A2000B10510F40C947C300E94791B60934D0406
:104A300070934E0480934F04909350040E94020C94
:104A40000E9471158823E1F380912901882321F0C8
:104A5000109229010E94480D10914B0480914C0442
:104A6000811721F00E94480D10934C048091AA04F4
:104A7000813011F481EB01C080EB0E94211E8093F4
:104A80002701C12CF8E0EF2E04E02AE235E042E2F3
:104A900055E064E375E080E090E00E948515182FF2
:104AA0008091340590913505A0913605B091370578
:104AB000892B8A2B8B2B31F482EE94E09093230583
:104AC00080932205C12CE0E1EE2E00E22CE235E0DD
:104AD00044E255E068E375E080E090E00E948515CF
:104AE000182B8091380590913905A0913A05B09125
:104AF0003B05892B8A2B8B2B31F482EE94E090932B
:104B0000250580932405C12C72E0E72E01E02EE2FA
:104B100035E046E255E060E375E080E090E00E9419
:104B20008515182B8091300590913105A0913205A3
:104B3000B0913305892B8A2B8B2B31F482EE94E0D4
:104B400090932705809326051A821982CC24C3945A
:104B500060E8E62E00E4930148E255E06CE375E07E
:104B600080E090E00E948515812B40913C0550919A
:104B70003D0560913E0570913F05452B462B472B27
:104B800031F420ED37E030932905209328058093F8
:104B90000102982F9474943411F585FF20C080E4AD
:104BA00095E00E94C81D882339F064E670E080E03B
:104BB00090E00E949E1BF3CF80E495E00E94FC1DD4
:104BC00080E495E00E94C81D882339F064E670E017
:104BD00080E090E00E949E1BF3CF0E943A0C8091EF
:104BE0000002882309F4ABC060910305669562500A
:104BF00080910405869528EC4FE352E18D500E9488
:104C0000D6166091030566956150809104058695DE
:104C100028EC4EE252E188500E94D6161091010213
:104C200014FF0CC080912601811102C084E201C0F2
:104C300081508093260181E08093FF0115FF0DC014
:104C400080912601843219F41092260103C08F5FEF
:104C50008093260181E08093FF0112FF0FC0E09155
:104C6000FE01EE2359F0E150E093FE01F0E0E6563C
:104C7000FB4F838D0E94EE0B8093260113FF0FC024
:104C8000E091FE01E73058F4EF5FE093FE01F0E0C1
:104C9000E656FB4F838D0E94EE0B80932601E09138
:104CA000FE01F0E0E656FB4FA0912601B0E0A959C5
:104CB000BE4F8C91838F409103054695609104050A
:104CC0006695645080E495E00E949F1D00E010E02E
:104CD0008091FE0180130C9486308091990481119B
:104CE0000C94AA300C948630882341F08150E82F30
:104CF000F0E0E656FB4F938D9F7DB1F3148E85E077
:104D0000E7E4F1E0D20101900D928A95E1F787E0A6
:104D1000ECE4F1E0D30101900D928A95E1F7B30143
:104D200085EB94E00E941933892B29F4B20185EBBD
:104D300094E00E942233109200020E94480D80915C
:104D4000FD01882309F441C1809103059FEF980F6D
:104D5000EFEBF4E02081281708F09083329634E0DE
:104D6000E53EF307B9F78091470490914804A0917C
:104D70004904B0914A04892B8A2B8B2B51F40E9451
:104D8000D81B609347047093480480934904909320
:104D90004A040E94D81B00914704109148042091B6
:104DA000490430914A04DC01CB01801B910BA20B1A
:104DB000B30B88389341A105B10530F56091030527
:104DC0006695615080910405869528EC47E152E193
:104DD0008B500E94D616609103056695809104055C
:104DE000869528EC40E052E18B500E94D6166091E7
:104DF000030566956F5F80910405869528EC4AEE61
:104E000051E18A500E94D6161091010210FF0EC087
:104E10008091FC01E82FF0E0EF50FE4F10828F5F91
:104E20008093FC018B3011F41092FC012091A904B5
:104E30009091FC01892F243099F09093FC0100910E
:104E4000FC01802F90E0FC01EF50FE4F1F0121E09C
:104E50002083063090F40EC08F5F90E08B3051F3CA
:104E6000E82FF0E0E55EFE4F90819923A9F380934F
:104E7000FC01E5CFDD24D39412C00A3018F088E09D
:104E8000800F05C00697982F990F890F8A5F80932E
:104E9000FC018091FC01823168F753E0D52EE12CB2
:104EA000F12FF071CF2EFF24F394212F2072B22E18
:104EB000312F3470A32E412F4870942ECC2081F0D6
:104EC000E091FC01F0E0EE0FFF1FE656FB4F85A1DD
:104ED000882331F0815085A30E94480DF092FF0194
:104EE000BB20B9F0E091FC01F0E0EE0FFF1FE656A9
:104EF000FB4F45A1242F30E08091030590E00197FE
:104F00002817390734F44F5F45A30E94480DF092EB
:104F1000FF01AA2081F0E091FC01F0E0EE0FFF1FFD
:104F2000E254FB4F8081882331F0815080830E94BE
:104F3000480DF092FF01992011F12091FC0130E021
:104F4000F901EE0FFF1FE254FB4F6081462F50E046
:104F50008091040590E0019770910105871B9109EC
:104F60004817590764F4D901AC5CBB4F8C9181118F
:104F700006C06F5F60830E94480DF092FF01809130
:104F8000FC018F5F8093FC01E394ED1097CF0093B9
:104F9000FC0116FF1AC0F101108280E00E94211767
:104FA0001092FD0181E080931A0110924704109243
:104FB00048041092490410924A04E1EFF1E0119282
:104FC0008A888E12FCCF0E94480D8091330488237A
:104FD00099F060910305669580910405869528EC0B
:104FE0004DED51E186500E94D61668EE73E080E0E8
:104FF00090E00E949E1BF9CF80911901882309F44B
:1050000025C168EB7BE080E090E00E949E1B0E943F
:10501000480D83E392E09093A6058093A50582ED69
:1050200090E0909383048093820481E080938404D1
:1050300084E00E94731780939E0584E00E9473179A
:1050400080939F0582E00E9473178093A00580E102
:105050000E9473171092A8051092A7051092A4053C
:105060001092A3051092A2051092A1051092660558
:1050700000E010E0BB24B394AA24A39488E6C82ED1
:1050800085E0D82E76018091A3059091A405892B07
:1050900089F5E0918204F0918304949180918404D5
:1050A0009823880F19F08093840407C0A092840489
:1050B0003196F0938304E0938204911105C088E057
:1050C0000E947317282F3AC080919E050E94731783
:1050D000809590959093A2058093A10580919F055E
:1050E0000E9473172091A005820F911D9093A40533
:1050F0008093A3058091A3059091A4059C01215064
:1051000031093093A4052093A305892BB1F0209198
:10511000A7053091A8058091A1059091A205820F65
:10512000931F60E072E00E94C932E091A505F09102
:10513000A605E80FF91F208101C020E08091A70596
:105140009091A80560E072E00E94C932E091A50547
:10515000F091A605E80FF91F20838091A705909193
:10516000A80501969093A8058093A705F7012193C0
:105170007F01FB89FE1187CFF02E60E0809144050E
:105180000E94F11A80E00E946D1780910205813023
:1051900011F480E401C080E00E946D1789E00E9454
:1051A0006D178F2D0E946D17F12C8AE00E946D17EC
:1051B0008F2D0E946D178BE00E946D17F601819173
:1051C0006F010E946D17F394F6E3FF12EECF88E0B3
:1051D0000E946D1780EA0E946D1780EA0E946D1789
:1051E00085FDFBCF80E00E946D1780910205813024
:1051F00011F480E401C080E00E946D1761E08091AD
:1052000044050E94F11A809166058B2580936605FE
:10521000882311F061E001C060E0809167050E9481
:10522000F11A64E170E080E090E00E949E1B0F5F45
:105230001F4F011521E0120709F020CF109219012C
:105240000E943A0C81E08093330456C78091F001AC
:10525000882309F455C060910305669561508091DB
:105260000405869528EC44EC51E18C500E94D6163A
:1052700060910305669580910405869528EC43EBC3
:1052800051E188500E94D6161091010213FF07C009
:105290008091B2048F5F8093B20481E001C080E00E
:1052A00012FF06C08091B20481508093B20481E065
:1052B00014FF06C08091B30481508093B30481E051
:1052C00015FF06C08091B3048F5F8093B30481E023
:1052D0009091FF01982B9093FF01882341F00E9449
:1052E000480D6091B3048091B2040E94291510FF0B
:1052F00007C01092F00181E080931A010E94480DCE
:105300009091EF0180913202992309F4CFC081116D
:1053100005C00E94480D81E0809332021091010285
:1053200012FF0EC08091A704882351F08150809312
:10533000A7048AE994E00E94C01E81E08093FF01E7
:1053400013FF0EC08091A704833050F48F5F8093C9
:10535000A7048AE994E00E94C01E81E08093FF01C7
:1053600014FF17C0E091A704F0E0EE0FFF1FE65610
:10537000FB4F8181928181153DE7930750F4C296DE
:10538000928381838AE994E00E94C01E81E0809329
:10539000FF0115FF17C0E091A704F0E0EE0FFF1F1B
:1053A000E656FB4F818192818D3241E0940750F0A7
:1053B000C297928381838AE994E00E94C01E81E0B3
:1053C0008093FF0110910405169514508090A70456
:1053D000912C5FEF851A950A6091030566956150DF
:1053E0008AEA91E16C8B0E94371EA12C4BEEC42EF1
:1053F00041E0D42EEE24E39400E09401AC016C89EA
:10540000812F0E948118E091A704F0E0EE0FFF1FAA
:10541000E656FB4F4181528160910305669580916C
:10542000040586954601A12CB12C72E0C72EEBEC49
:10543000EE2EE1E0FE2E01E020E083500E94E8180D
:1054400010910405169517508090A3049090A40421
:105450006091030566956F5F81EA91E16C8B0E9414
:10546000371EF2E0AF2E6701EE24E39400E09401D2
:10547000AC016C89812F0E9481188091EF018823F3
:1054800069F06091030566956E5F809104058695CD
:1054900028EC4DE851E189500E94D6168091EF0129
:1054A000882309F429C61092EF0126C6882321F02B
:1054B0000E94480D109232028091EE01882311F172
:1054C0008091FF018823F1F08091F00181111AC0D1
:1054D0000E9464191092FF011092EE016091030581
:1054E000669580910405869528EC4EE751E187503A
:1054F0000E94D6166CED75E080E090E00E949E1B45
:105500000E94480D9091010280911A0196FD02C0FF
:105510008823B9F081110BC081E080931A010E94A9
:10552000480D8BE390E29093180180931701E0916E
:105530001701F091180109959093180180931701B4
:10554000DBC580913102882331F010923102109234
:10555000ED010E94480D10924B04E091A904F0E087
:10556000EE0FFF1FE35AFE4F2081318180918904A5
:1055700090918A04821793071CF581E080934B0475
:1055800080931B019091F1019111809365058BEE41
:10559000882E81E0982EA12CB12C92E0C92E2FEC00
:1055A000E22E21E0F22E01E020E040E050E06091A8
:1055B000BF048091BE040E94E8188093340402C0A6
:1055C00010921B01E091A904F0E0EE0FFF1FE35AD7
:1055D000FE4F20813181809185049091860482174D
:1055E00093079CF580914B048F5F80934B0481E07F
:1055F00080931E01198215EBE12E14E0F12EF701C4
:1056000001900020E9F7AF01465B544003E010E051
:1056100093016091C5048091C4040E944616809352
:1056200037048091F401882309F496C58091990488
:10563000882309F491C5F70101900020E9F7CF0113
:10564000865B94400E941A1602C010921E01E091DF
:10565000A904F0E0EE0FFF1FE35AFE4F20813181D5
:1056600080918B0490918C04821793070CF083C077
:1056700080914B048F5F80934B0491E090931C01C9
:1056800080910505811117C08091F20181119093DD
:105690006505EBEE8E2EE1E09E2EAA24A394B12C9C
:1056A000CC24C394A1EDEA2EA1E0FA2E00E021E083
:1056B00040E050E020C02091AE04222321F0209150
:1056C0001605211121C08091F201882319F081E093
:1056D000809365055BEE852E51E0952EAA24A39458
:1056E000B12CCC24C39479EDE72E71E0F72E00E0C5
:1056F00021E047EE53E06091C1048091C0040E9414
:10570000E8188093350439C02BEE28872CEE2987C2
:105710001A8621EE298322EE2A831B82823031F4FD
:105720009887898789E089838AE08A83F090C10419
:105730001D86F20101900020E9F73197AF0144196D
:105740005509FA94F7FCF12C01E010E09E01235F6B
:105750003F4F6F2D8091C0040E9446168093350400
:105760008091F201F394882309F400C58091990493
:10577000811119C5FBC410921C01E091A904F0E04D
:10578000EE0FFF1FE35AFE4F2081318180918D047F
:1057900090918E04821793073CF580914B048F5FA4
:1057A00080934B0481E080931F019091F50191114A
:1057B000809365059BEE892E91E0992E24E0A22E20
:1057C000B12CCC24C39433EDE32E31E0F32E01E071
:1057D00021E040E050E06091C7048091C6040E943F
:1057E000E8188093380402C010921F01E091A904C8
:1057F000F0E0EE0FFF1FE35AFE4F208131818091D0
:105800008F0490919004821793070CF050C0809100
:105810004B048F5F80934B0481E080931D01809146
:10582000AE04813021F580911705813001F588E8BB
:105830008093120180931101198202E010E093011C
:1058400044E06091C3048091C2040E944616809394
:1058500036048091F301882309F4BEC48091990431
:10586000882309F4B9C484E00E941A1622C08091EA
:10587000F301882319F081E080936505BBEE8B2E40
:10588000B1E09B2E12E0A12EB12CC12C0BECE02E2E
:1058900001E0F02E01E020E040E050E06091C30420
:1058A0008091C2040E94E8188093360402C01092CE
:1058B0001D011091AE04113051F480911505813015
:1058C00031F48EE70E94211E80930E0102C01092D7
:1058D0000E01E091A904F0E0EE0FFF1FE35AFE4F26
:1058E00020813181809191049091920482179307D5
:1058F0000CF01CC180914B048F5F80934B041130DE
:1059000009F089C080911405813009F084C02DE12F
:1059100032E03E8B2D8B75E5C72E71E0D72E0AE065
:1059200011E0E9E12E2EE2E03E2EEE24E394F12C8C
:105930000E94D81BF601A191B1916F01ED89FE89FA
:1059400080809180A280B3809B01AC012819390925
:105950004A095B092E873F87488B598B80E197E284
:10596000BD010E94C932CB01770FAA0BBB0B8E84FD
:105970009F84A888B98888159905AA05BB05F0F405
:105980000E94D81BED89FE89608371838283938393
:10599000F8018081E0FC02C0815001C08F5F8083EC
:1059A000F8018081843A18F06CE9862E8082F80133
:1059B00080818C3918F453EA852E8082F801819118
:1059C0008F01F10181931F012D893E892C5F3F4F8B
:1059D0003E8B2D8B3FEFE31AF30A45E0E416F1040A
:1059E00009F0A6CF198206E010E0930141E0609132
:1059F000CB048091CA040E94461680933A04809199
:105A0000F701882309F4EFC380919904882309F4EE
:105A1000EAC360E2EAC38BE68093160282E78093D2
:105A20001702109218028091F701882319F081E083
:105A3000809365052BEE822E21E0922E36E0A32E78
:105A4000B12CCC24C39446E1E42E42E0F42E01E0D4
:105A500021E040E050E06091CB048091CA040E94B4
:105A6000E81880933A048091F801882319F081E0C6
:105A7000809365050BEE802E01E0902E89E0A82E24
:105A8000B12CCC24C39496E1E92E92E0F92E00E0EB
:105A900021E040E050E06091D1048091D0040E9468
:105AA000E81880933D048091F901882319F081E082
:105AB00080936505ABEE8A2EA1E09A2EBCE0AB2E5A
:105AC000B12CCC24C39416E1E12E12E0F12E00E0BB
:105AD00021E040E050E06091D7048091D6040E941C
